:020000040800F2
:10000000B03A00209D01000869350008F12600087B
:10001000D92F00082D1900083D58000800000000E5
:1000200000000000000000000000000005010008C2
:10003000311B00080000000049010008AD53000812
:10004000B7010008B7010008B7010008B7010008B0
:10005000B7010008B7010008B7010008B7010008A0
:10006000B7010008B7010008B7010008B701000890
:10007000B7010008B7010008B7010008B701000880
:10008000B7010008B7010008B7010008B701000870
:10009000B7010008B7010008B7010008B701000860
:1000A000B7010008B7010008B7010008B701000850
:1000B0001D540008B7010008B7010008B701000887
:1000C000B7010008B7010008B7010008B701000830
:1000D000B7010008B7010008D5550008B7010008AE
:1000E000B7010008B7010008B7010008DFF810D019
:1000F00000F0FCFE0048004721730008AFF30080C9
:10010000B03A0020224B19680868B0E8F00F80F37D
:100110000988BFF36F8F4FF0000080F311884EF015
:100120000D0E70470000000006480068006880F36C
:10013000088862B661B6BFF34F8FBFF36F8F00DFE1
:1001400000BF00BF08ED00E0EFF30980BFF36F8F41
:100150000F4B1A6820E9F00F106008B54FF05000FF
:1001600080F31188BFF34F8FBFF36F8F08F0D6FA7B
:100170004FF0000080F31188BDE808401968086856
:10018000B0E8F00F80F30988BFF36F8F704700BFAE
:1001900014010020EFF305807047000006488047F7
:1001A00006480047FEE7FEE7FEE7FEE7FEE7FEE75C
:1001B000FEE7FEE7FEE7FEE7BD530008ED0000089E
:1001C0000649074A0868504343F239021044086060
:1001D0004008704701490860704700007401002022
:1001E0006D4EC64138B5D0E90221491E01EB4101EF
:1001F00002EBC1014268C1EB011102EB810102680F
:10020000C1EB011102EB8102D0E9043101EB4101A4
:1002100003EB81013023A1F5527191FBF3F4174DEB
:100220006C4302EBC41291FBF3F403FB1411009234
:100230001A2902DB124B1A4400920C2291FBF2F3B2
:10024000104C6343009C04EBC313009391FBF2F347
:1002500002FB13110C4A08E0491E40F2A324535C30
:100260006343009C04EBC31300930029F4DC0146B4
:10027000684600F0D7FC009838BD00003F0C0F0026
:100280008051010067C20300E6B8000840EA01039C
:100290009B0703D009E008C9121F08C0042AFAD23C
:1002A00003E011F8013B00F8013B521EF9D2704700
:1002B000D2B201E000F8012B491EFBD270470022A8
:1002C000F6E710B513460A4604461946FFF7F0FF55
:1002D000204610BD30B505462A460B4612F8010BE4
:1002E00013F8014B08B1A042F8D01CB1002802D08D
:1002F0006D1CF1E7284630BD421C10F8011B002997
:10030000FBD1801A704710B5002200E0521C835CBC
:100310008C5CA34201D1002BF8D1D8B2E1B2401AD3
:1003200010BD00000FB400B58DB010A909900B905E
:1003300000914FF0FF300A9000200C900548069085
:10034000054807906A4609A80F9900F0C5FC0DB052
:100350005DF814FBF50C0008130D00082DE9FF5F94
:100360001D464FF0FF3BD5E9014691465F464FF0F1
:100370000008A9697F1C01988847296A8246884736
:100380000028F6D1BAF1FF3F0CD024F4C064002E4F
:1003900019DD600614D5BAF12B0F09D0BAF12D0F73
:1003A0000ED103E0584604B0BDE8F09F44F48064E9
:1003B000A9697F1C01988847761E8246002E02DDBF
:1003C000BAF1300F03D0B9F1000F26D032E0A9699D
:1003D000761E44F400747F1C019888478246002EE4
:1003E00005DDBAF1780F06D0BAF1580F03D0B9F194
:1003F000000F10D01EE0B9F1000F02D0B9F1100FBC
:1004000018D1A969761E24F400747F1C01988847CE
:100410008246102002E0082000E00A20814609E020
:1004200008FB0908A969761E44F400747F1C019832
:1004300088478246002E05DD4946504600F038FCCC
:100440000028EDDAE96901988847A00502D46FF029
:100450000100A8E7E00725D1600613D5600502D5A5
:10046000C8F1000000E0404629680A1D2A600968BA
:10047000220501D5087015E0220701D5088011E09A
:1004800008600FE02868011D29600068210502D579
:1004900080F8008006E0210702D5A0F8008001E086
:1004A000C0F8008038467EE7F0B480EA0102D40F3D
:1004B0004200B2EB410F02D20246084611464A0002
:1004C00042D0C30DDDB2C1F3C752AD1A202D35DACB
:1004D000C1F3160141F4000204B15242C5F12006F5
:1004E00002FA06F12A411044B3EBD05F23D0C4B125
:1004F000012DA0EBC35009DCF0BC4FF0004202EA32
:10050000C352DBB200F5000000F01DBC400000F15A
:10051000807000EBC350A0F1807040EAD1704900B8
:1005200009E0490841EAC071A0EBC35000F50000A2
:10053000400800EBC350F0BC00F0FCBB614201225C
:1005400002EB4101001BF6E7F0BC704781F000416F
:10055000AAE780F00040A7E780EA010210B502F0A8
:100560000043400022D04A001FD0010E01EB12616F
:10057000C0F35600C2F3560240F4000042F40002F9
:10058000A0FB022000047F39140400D0401C50EA74
:10059000124001D44000491EC2B20C0604EBD01038
:1005A000401C4008802A02D003E0002010BD20F04B
:1005B0000100002900DA0020184310BD30B480EAA1
:1005C000010202F0004530F0004221F0004013D05B
:1005D00090B1C30DD40DC2F31601C0F31600E41A96
:1005E00041F4000140F400027D34914201D3641CC7
:1005F00000E04900002C02DA30BC002070474FF4C4
:1006000000000023914201D3891A034340084FEAB6
:100610004101F7D151B1914202D14FF0004105E0C3
:1006200002D24FF0010101E06FF0010103EBC45071
:10063000284430BC00F07EBB2DE9FE4F804681EAA5
:100640000300C00F0C46009021F0004123F000454C
:10065000B8EB0200A94105D24046214690461C460F
:100660000B46024623F00040104347D0270DC7F346
:100670000A00C3F30A510290401A019040286BDA35
:10068000C3F3130040F4801B0098924620B100236E
:10069000D2EB030A63EB0B0B01985946C0F1400201
:1006A000504600F088FA06460D4650465946019AD3
:1006B00000F0A0FA10EB08006141002487EA115213
:1006C00084EAE7731A4340D0009A62B3019A012A80
:1006D0004FEA075215DC001B61EB02014FF00042AC
:1006E00002EA0752CDE90042001C41F58011324672
:1006F0002B4600F094FB03B0BDE8F08F4046214646
:10070000F9E7001B61EB0201001C41F580130018A2
:100710005B412018A2F5001747EB030140EAD570B2
:10072000B6196D4111E06D084FEA360645EAC0750D
:100730004FEA0752001B61EB0201001C41F58011DA
:1007400049084FEA30000019514132462B4603B0A8
:10075000BDE8F04F00F054BB009801224000002398
:10076000D0EB020263EBE073009821464FEAE0749D
:10077000B8EB000061EB0401E9E783F000435BE7BD
:1007800081F0004158E72DE9FE4F81EA030404F0AF
:10079000004421F0004100944FF0000B23F000438F
:1007A00050EA01045ED052EA03045BD0C3F30A545A
:1007B000C1F30A552C44A4F2F3340194A0FB025473
:1007C000C1F3130141F48011C3F3130343F4801305
:1007D00001FB024400FB034E840A970A44EA815459
:1007E00047EA8357A4FB076802958D0A05FB078536
:1007F0004FEA932C04FB0C542705029D4FEA065840
:1008000047EA1637B5EB08056EEB070C870E920E1C
:1008100047EA811742EA8312A7FB0201B6EB0B01FC
:1008200064EB00042B0D43EA0C335E1844EB1C50C0
:10083000DA465146E7FB0201C5F313044FEA0B33D6
:1008400043EA14534FEA0432019C43EA0603A4F13D
:100850000C040294009CCDE900B400F0E0FA03B06F
:10086000BDE8F08F00200146F9E72DE9F04D81EA5F
:10087000030404F0004B21F0004514464FF0000A39
:1008800023F0004150EA050220D054EA01021DD0B5
:10089000C5F30A570246C5F31303C1F31300C1F3AE
:1008A0000A5640F4801543F48013A7EB0608101B8A
:1008B000D64608F2FD3873EB050002D308F10108B3
:1008C00001E092185B41B8F1000F03DA0020014605
:1008D000BDE8F08D00204FF48011064684460EE0FE
:1008E000171B73EB050705D3121B63EB05030643C8
:1008F0004CEA010C49084FEA300092185B4150EA7B
:100900000107EDD152EA030012D082EA040083EA23
:100910000501084305D0101BAB4106D2012200237C
:1009200006E000224FF0004302E06FF00102531096
:100930001AEB06004CEB085110EB0A0041EB0B01DF
:10094000BDE8F04D00F05CBAC10F80EAE0700844E9
:10095000CA079623002100F0F6B99623002211461B
:1009600000F0F1B90EB5C10F80EAE0700844CA0783
:10097000002140F233438DE80E000A460B4600F09A
:100980004EFA03B000BD0EB540F233410291002192
:10099000CDE900110A460B4600F041FA03B000BD54
:1009A00000F0004220F00040C10DC0F3160040F4FA
:1009B00000007F2901DA00207047962903DCC1F18D
:1009C0009601C84001E096398840002AF4D04042A0
:1009D000704770B5C1F30A5201F000450024C1F31D
:1009E000130140F2FF3341F480119A4201DA0020F2
:1009F00070BD40F233439A42A2F2334203DC5242CA
:100A000000F0E8F800E090402C43F1D0404270BD87
:100A1000C1F30A5210B5C1F3130140F2FF3341F4A0
:100A200080119A4201DA002010BD40F233439A420D
:100A3000A2F2334203DC524200F0CCF810BD9040E9
:100A400010BD00F0004230F000400AD0C10D01F5A9
:100A50006071C0F3160042EA0151C2084007114319
:100A6000704700200146704730B5041E71F1000444
:100A700004DB4FF00044404264EB0101141E73F1AB
:100A8000000405DB1C464FF00043524263EB0403B5
:100A90008B4208BF824230BD30B5041E71F10004A4
:100AA00004DB4FF00044404264EB0101141E73F17B
:100AB000000405DB1C464FF00043524263EB040385
:100AC000994208BF904230BD01F0004330B421F09C
:100AD000004150EA010206D00A0DA2F56072C1F38E
:100AE0001301002A02DC30BC00207047440F44EAA6
:100AF000C104C100E01830BC00EBC25000F01AB9CC
:100B0000002801DBC0F10040002901DBC1F10041F8
:100B100081427047002801DBC0F10040002901DB61
:100B2000C1F100418842704730B50B4601460020B4
:100B30002022012409E021FA02F59D4205D303FA9F
:100B400002F5491B04FA02F52844151EA2F1010220
:100B5000F1DC30BD2DE9F05F0546002092469B4652
:100B600088460646814640241BE0284641464746C3
:100B7000224600F02FF853465A46C01A914110D32E
:100B800011461846224600F016F82D1A67EB0108A8
:100B90004F4622460120002100F00DF817EB000916
:100BA0004E41201EA4F10104DFDC484631462A46AE
:100BB0004346BDE8F09F202A04DB203A00FA02F108
:100BC000002070479140C2F1200320FA03F319433B
:100BD00090407047202A04DB203A21FA02F00021DD
:100BE000704721FA02F3D040C2F12002914008433D
:100BF00019467047202A06DBCB17203A41FA02F04B
:100C000043EAE07306E041FA02F3D040C2F1200269
:100C10009140084319467047014900F003B80000AD
:100C20008036002010B500683C22B0FBF2F302FBD6
:100C30001303B0FBF2F00B60B0FBF2F302FB130303
:100C4000B0FBF2F018224B60B0FBF2F302FB13038F
:100C5000B0FBF2F0021D8B600723B2FBF3F403FB41
:100C60001422800040F2B55300F66C308A61B0FB6C
:100C7000F3F2B0FBF3F403FB1400443280084A6142
:100C8000C8613B2802D3920700D0401C0022074CC9
:100C900013460A61E25C824203D8801A5B1C0B6136
:100CA000F8E7401CC860084610BD000018BA0008EC
:100CB0003A2800D2303820F02002412A01D3A2F194
:100CC0003700884201D34FF0FF307047026811446B
:100CD0001378016018467047D16004495161044996
:100CE000116200211161114600F018B9CD0C000805
:100CF000110F0008426842B1016811F8013B23B1AD
:100D0000521EC0E90012184670470121C160881EBA
:100D1000704742685AB1C368016843B983688B421F
:100D200005D0491E521CC0E90012002070474FF048
:100D3000FF3070470029A8BF7047401C490008BF1A
:100D400020F00100704710B4B0FA80FC00FA0CF0FB
:100D500050EA010404BF10BC704749B1CCF1200433
:100D600021FA04F411FA0CF118BF012121430843C0
:100D7000A3EB0C01CB1D4FEA00614FEA102042BFEC
:100D8000002010BC704700EBC35010440029A4BFE2
:100D900010BC7047401C490008BF20F0010010BC87
:100DA0007047F0B4002802DCF0BC00207047C0F3AC
:100DB000C751C0F3160040F40000CA0701D140003B
:100DC000491E3F2202EB6105002211464FF4000646
:100DD00026FA01F31344D418844201D8001B1A46A2
:100DE0004000491C1729F3DD5100814202D24FF027
:100DF000FF3100E0002102EBC550F0BCFFF79ABFC5
:100E000010B5141E73F1000408DA401C41F1000112
:100E100092185B411A4301D120F0010010BD2DE969
:100E2000F04D92469B4611B1B1FA81F202E0B0FA60
:100E300080F220329046FFF7BEFE04460F4640EA9D
:100E40000A0041EA0B0153465A46084313D01146A3
:100E500053EA010019D0C8F140025046FFF7BAFE2C
:100E600005460E46504659464246FFF7A4FE084343
:100E700005D0012004E020463946BDE8F08D002071
:100E8000054346EAE0762C4337430A986305E40AB3
:100E9000A0EB08000022FD0A44EA47540A3002D5BC
:100EA00000200146E9E7010510196941DDE908451F
:100EB00000196941BDE8F04DA2E7C1F30A52C1F340
:100EC000130140F2FF3341F480119A4202DA00200C
:100ED0000146704740F233439A42A2F2334202DCA9
:100EE0005242FFF777BEFFF766BE0000064C074D83
:100EF00006E0E06840F0010394E8070098471034EA
:100F0000AC42F6D3FFF7F6F820BB000840BB000860
:100F1000C0B24FF4F05100F0BDB900002DE9F34F1D
:100F20008BB04FF0000801F10C000C464FF0010BA4
:100F300046460DF1080A0190626901210198904727
:100F4000051E2DD0252D2CD0216A8847C0B162699D
:100F5000012101989047216A88470028F7D1411E56
:100F600062690198904700E0761CA1690B98884758
:100F7000216A88470028F7D1E1690B988847DBE7A9
:100F8000A1690B9888470746A84201D1761CD3E790
:100F9000E1690B9888477F1C02D1B8F1000F6FD030
:100FA00047E1002762693D463946019890472A2863
:100FB00004D162690121019890470125DFF88892E8
:100FC0006269012101989047A0F130010A290AD2F3
:100FD0004F45E5DC07EB870100EB4107303FDFD4ED
:100FE00045F01005ECE7E90601D46FF000476C28E6
:100FF0000AD04C2814D0682815D06A280DD074283F
:101000001CD07A281AD01DE062690121019890470E
:101010006C2802D045F0040514E045F002050DE00F
:1010200045F020050AE0626901210198904768288F
:1010300002D045F0080505E045F40065626901212C
:1010400001989047C4E9015765283DD019DC58281C
:101050007AD00CDC452837D004DC252826D041285E
:1010600031D131E046282FD047282CD12CE05B2805
:1010700077D0612828D063287CD0642823D15AE017
:10108000D1E06F2848D008DC66281DD067281BD027
:10109000692821D06E2816D127E0702845D0732802
:1010A00068D0752847D078280DD14DE0A1690B98FC
:1010B0008847054625283FF469AFE1690B988847C2
:1010C0006D1C3FF46AAFB4E023466A466FF001003E
:1010D0000B99AFF300809FE045F040006060A807E7
:1010E00023464FF0000236D43EE0E8077FF447AFD6
:1010F0002068011D21600068290501D506701BE7E5
:10110000290701D5068017E7A90703D5F117C0E91C
:10111000006111E706600FE745F040006060A80736
:1011200023464FF0080216D41EE040F60E0125EAD1
:101130000100606016E045F040006060A8072346AB
:101140004FF00A0207D40FE045F040006060A807A6
:1011500008D5234610226FF001000B99AFF30080F1
:101160005AE007E0234610226FF001000B99FFF7C9
:10117000F5F851E04FF000094F464B46632802D086
:101180005B2807D041E02079C00601D40120A0608F
:1011900001273AE062690121019890475E2805D154
:1011A0004FF001096269494601989047216939B9B0
:1011B00000210A46534643F82120491C0829FADB3E
:1011C000B0B3216969B9C11700EBD16253110AEBC1
:1011D000830122F01F02821A01200B689040034312
:1011E0000B6062690121019890475D28E8D1B9F14F
:1011F000000F09D00020514651F82020D24341F879
:101200002020401C0828F7DB02AB224600976FF035
:1012100001000B99AFF3008000280CDA401C08D1C4
:10122000BBF1000F05D04FF0FF300DB0BDE8F08FDF
:10123000FFE74046F9E7E90701D108F10108064454
:101240004FF0000B78E60000CCCCCC0C420005D06F
:10125000C0F3C7525242914201DC0020704700EBBC
:10126000C150704770B521F0004303430CD0C1F367
:101270000A550024D5EB040564EB0403D617AD1A18
:10128000B34102DB0020014670BD201841EB025142
:1012900070BD00007F2801D9002208E0064A02EB59
:1012A0005002C007127800D1120902F00F0201208B
:1012B000904008407047000024BA000870B58C18B0
:1012C00010F8015B15F0070301D110F8013B2A115A
:1012D00006D110F8012B03E010F8016B01F8016B47
:1012E0005B1EF9D12B0705D40023521E0DD401F843
:1012F000013BFAE710F8013BCB1A921C03E013F80C
:10130000015B01F8015B521EF9D5A142D8D3002040
:1013100070BD21B1826842F00102826003E0826800
:1013200022F0010282607047014600208A6802F0C4
:1013300004020AB1012000E0002070470146C86C99
:1013400080B27047014600208A6802F008020AB1A4
:10135000012000E00020704730B502460020002345
:1013600050680F4C20400D790C6844EA0524204356
:10137000506090680B4C2040D1E902542C434D79C9
:1013800044EA450420439060D06A20F470000C7C4D
:10139000641EE4B2234340EA0350D06230BD000033
:1013A000FFFEF0FFFDF7F1FFF0B504460D4600200B
:1013B0000021092D11DDE068A5F10A0606EB4607BC
:1013C000072606FA07F18843A5F10A0606EB46064A
:1013D00003FA06F10843E0600CE0206905EB4507DD
:1013E000072606FA07F1884305EB450603FA06F1DE
:1013F00008432061072A0FDA606B561E06EB86074A
:101400001F2606FA07F18843561E06EB860605FAE4
:1014100006F10843606322E00D2A0FDA206BD61F25
:1014200006EB86071F2606FA07F18843D61F06EB50
:10143000860605FA06F10843206310E0E06AA2F18F
:101440000D0606EB86071F2606FA07F18843A2F170
:101450000D0606EB860605FA06F10843E062F0BDCC
:10146000816841F008018160704721B1826842F4CF
:10147000A002826003E0826822F4A00282607047CA
:10148000816841F0040181607047000010B5024896
:10149000FFF754FF10BD00000024014000B587B0E5
:1014A0000121480202F01EFF0121042002F01AFF70
:1014B0004FF4004002F0DAFE00208DF81B000120FE
:1014C000ADF8180003208DF81A0006A91B4800F09B
:1014D000C5FF0523012200211948FFF765FF002001
:1014E000019004904FF46020039001208DF80900D2
:1014F00000208DF8080001208DF8140001A9104883
:10150000FFF72AFF01210E48FFF703FF0C48FFF702
:10151000A7FF00BF0A48FFF715FF0128FAD00848C7
:10152000FFF7AEFF00BF0648FFF7FEFE0128FAD026
:1015300001210348FFF799FF07B000BD00080140F3
:101540000024014070B506460D4606B10DB90120D4
:1015500070BD00214FF4003000F0B4F908B1012053
:10156000F6E70121204801F0C5F801211E4801F0ED
:101570000BF91E4800F090F918B100F063F9012052
:10158000E6E701227021184801F0AEF91748401C27
:1015900000F082F918B100F055F90120D8E70024D5
:1015A0001AE0681EC0B2A04207D100210E4801F027
:1015B000A1F801210C4801F0F3F801210C4800F0DA
:1015C00081F918B100F03EF90120C1E7064801F0A9
:1015D00087F93055601CC4B2AC42E2DB01210248FD
:1015E00001F088F80020B3E7005800400100030034
:1015F0004000001070B505460E4600214FF4003043
:1016000000F060F908B1012070BD0121174801F018
:10161000BBF8174800F040F918B100F013F90120A9
:10162000F2E700227021114801F05EF9114800F044
:1016300033F918B100F006F90120E5E700240EE0C7
:10164000295D0A4801F059F90A48801C00F024F984
:1016500018B100F0F7F80120D6E7601CC4B2B4421C
:10166000EEDB00F0EFF80020CEE70000005800406D
:10167000010003008200070000B587B00020019040
:101680002EA0006800900121082002F02BFE01210D
:10169000880502F007FE1C208DF81B004FF4406007
:1016A000ADF8180003208DF81A0006A9244800F0B0
:1016B000D5FE244801F04CF80121224801F01FF921
:1016C0000021204801F01BF90020ADF80C004BF67A
:1016D000FF70ADF80E000020ADF810004FF48060F0
:1016E000ADF812000001ADF814001748029002A9ED
:1016F000144801F07FF80121124801F01CF828205D
:1017000000F017FA012101A8FFF71CFF60B99DF84E
:10171000040000F0080070B903216846FFF76AFF73
:101720000A2000F006FA06E003216846FFF762FF90
:101730000A2000F0FEF907B000BD0000BE0800005E
:10174000000C014000580040A086010008B500BF11
:10175000002269461548006807F018FB01280FD1E0
:101760009DF8000003280BD1192007F06DF828B16F
:1017700001F0B2FF02F014FD07F058F8002008BD98
:10178000192007F061F868B101F0A6FF03F0EAF84C
:1017900010231A460021084602F040FB02F000FD2B
:1017A00007F044F8322006F05DFED1E7E0000020AB
:1017B000FEB504460D4622A00068009004B10DB9A4
:1017C0000120FEBD03216846FFF714FF08B1012088
:1017D000F7E7502000F0ADF9062101A8FFF7B2FEAF
:1017E00008B10120EDE79DF8040000F0800008B189
:1017F0000120E6E79DF8050000039DF8061040EA89
:1018000001109DF8071040EA11174FF47A707843E1
:10181000000D28809DF807000007000B9DF80810B8
:1018200040EA01209DF8091040EA01074FF4FA60F0
:1018300078434FF4FA71C1EB105626800020C0E7C0
:10184000AC33000010B50121034800F0A9FF0121CD
:10185000014800F04FFF10BD005800401CB569461C
:1018600001A8FFF7A5FF20B100200849087001205A
:101870001CBDBDF9040006490880BDF800000549FB
:1018800008800120014908700020F1E7D400002001
:10189000D0000020D200002070B50446074D05E0BE
:1018A000281EA5F1010501D1012070BD2146044883
:1018B00000F02CFF0128F3D10020F6E7A0860100FC
:1018C0000058004070B504460D46084E05E0301E35
:1018D000A6F1010601D1012070BD2146044800F0A7
:1018E0006BFFA842F3D10020F6E70000A0860100BC
:1018F0000058004008B501460020009003480090C1
:101900000098084400900098008808BD006C0040D2
:1019100008B500220092044A0092009A0244009204
:10192000009A116008BD0000006C004000BFFEE797
:1019300070B504460D46012D07D10A4850F8240021
:10194000401C084941F8240006E0064850F82400ED
:10195000401E044941F82400204601F061FE01F0D8
:10196000DDFD70BD1400002000F0805111B103496D
:10197000086001E00249486070470000040402402A
:101980000000024021B1026842F00102026004E05E
:1019900002684FF6FE731A400260704701684FF606
:1019A000FE72114001600021016041608160C160F0
:1019B0004B49884208D14A490839496841F00F012A
:1019C000474A083A51608AE045491431884208D1B3
:1019D00043490839496841F0F001414A083A5160E9
:1019E0007DE03F492831884208D13D49083949689E
:1019F00041F470613A4A083A516070E038493C312C
:101A0000884208D136490839496841F47041344A5E
:101A1000083A516063E032495031884208D1304978
:101A20000839496841F470212D4A083A516056E05E
:101A30002B496431884208D129490839496841F461
:101A40007001274A083A516049E0254978318842B7
:101A500008D123490839496841F07061204A083AA1
:101A600051603CE01F49884206D1011F096841F0DE
:101A70000F01021F116032E01A491431884208D167
:101A80001849091F096841F0F001164A121F116038
:101A900025E014492831884208D11249091F0968F4
:101AA00041F470610F4A121F116018E00D493C317A
:101AB000884208D10B49091F096841F47041094A5D
:101AC000121F11600BE007495031884207D10549C8
:101AD000091F096841F47021024A121F1160704702
:101AE00008000240080402400146486880B270477E
:101AF00010B50022026847F6F0739A430C6A8B68AF
:101B000023430C6923434C6923438C692343CC69E9
:101B100023434C6A23438C6A23431A430260CB68F5
:101B200043600B6883604B68C36010BD41607047C1
:101B3000704770B5044607F025FB01280CD0FA2049
:101B400060434FF47A71B0FBF1F50DB904B1012592
:101B5000284606F087FC70BD03E04FF47A7000F071
:101B600012F8201EA4F10104F7D100BFF3E710B56D
:101B7000044603E04FF47A70FFF7DBFF201EA4F168
:101B80000104F7D110BD08B509E00021009103E080
:101B900000BF0099491C009100990929F8D3011E42
:101BA000A0F10100F1D108BD38B500BF002269469F
:101BB0001648006807F0EAF8012805D19DF80000F2
:101BC000012801D112490870192006F03DFE78B1B4
:101BD00001F082FD03F06CFA03F0C8F902F04CFF4B
:101BE00003F072F803F082F802F0DAFA06F01EFE53
:101BF0000849094805F05AFB0446012C01D1002090
:101C000038BD0C2006F02EFCD0E70000E0000020DC
:101C1000C5000020C0000020C900002000200449A9
:101C20000870044908700449088004490860704736
:101C3000C8000020BF000020BC000020B800002029
:101C40002F480078401C2E4908702E480078401C10
:101C50002C4908702C480078401C2B4908702848F3
:101C60000078642807DB00202549087027480068B1
:101C7000401C264908602348007814281ADB0020FD
:101C80002049087022480088401C214908802148CA
:101C90000078401C1F4908701D480088FF2802DD9D
:101CA00000201B4908801B480078902802DB002098
:101CB000184908701448007832280DDB00201249BA
:101CC000087015480078401C1349087008460078D1
:101CD000C82801DB002008701048007801280DD1C9
:101CE0000F480088401C0E49088008460088B0F55F
:101CF0007A7F03DB002008800849087070470000E5
:101D0000CD000020CE000020CF000020B800002031
:101D1000BC000020BF000020C4000020C50000203F
:101D2000C600002010B50446192006F08DFD70B3E2
:101D300001F0D2FC03F0CAF9012C06D0022C0BD022
:101D4000032C10D0042C1CD114E010231A460021BF
:101D5000084602F063F815E010231A4619460020E1
:101D600002F05CF80EE010231A462021002002F059
:101D700055F807E010231A463021002002F04EF8F3
:101D800000E000BF00BF02F00BFA06F04FFD10BDEF
:101D900010B50446192006F057FD28B301F09CFC4D
:101DA00003F094F9022C04D0032C09D0042C15D193
:101DB0000DE0102320221946182002F02FF80EE023
:101DC00010231A462021182002F028F807E01023DB
:101DD0001A463021182002F021F800E000BF00BFB1
:101DE00002F0DEF906F022FD10BD10B50446192000
:101DF00006F02AFD28B301F06FFC03F09DF9052CD5
:101E000004D0062C09D0072C15D10DE010231A465A
:101E10000021084602F002F80EE010231A46194687
:101E2000002001F0FBFF07E010231A4620210020CC
:101E300001F0F4FF00E000BF00BF02F0B1F906F0CE
:101E4000F5FC10BD10B50446192006F0FDFC28B3C2
:101E500001F042FC03F070F9052C04D0062C09D0E7
:101E6000072C15D10DE010231A460021182001F08F
:101E7000D5FF0EE010231A461946182001F0CEFFB8
:101E800007E010231A462021182001F0C7FF00E0C8
:101E900000BF00BF02F084F906F0C8FC10BD0000CE
:101EA00010B5262001F062FB002007490880074991
:101EB0000870074908704FF400710648FEF7FFF9F3
:101EC000262001F05FFB10BDD6000020D8000020C6
:101ED000D90000208007002010B500210848FFF736
:101EE00051FD4FF400710648FFF720FE4FF47000DB
:101EF000FFF73AFD01210248FFF744FD10BD000045
:101F00006C00024000B58BB00121084602F0BAF91E
:101F100000211548FFF736FD1348FFF73FFD134832
:101F2000009013480190002002904FF4007003903D
:101F300000200490802005900020069007900890D3
:101F40004FF40050099000200A9069460648FFF7B8
:101F5000CFFD4FF47000FFF707FD01210248FFF7A6
:101F600011FD0BB000BD00006C00024004440040B5
:101F70008005002010B500200A4908800A49087031
:101F80000A4908704FF400710948FEF798F94FF4B8
:101F900000710848FEF793F900F0CCF8FFF7B2FFA4
:101FA00010BD0000D6000020D8000020D90000207D
:101FB00080050020800700202DE9F04107460C46EF
:101FC00015460FB105B114B90020BDE8F0810F48E6
:101FD000007810B900202880F7E7262001F0C6FA23
:101FE0000B480688A64200DD264632460949384697
:101FF000FEF74CF92E80002005490880034908703F
:10200000262001F0BFFA0120DFE70000D800002001
:10201000D60000208007002070B505460E4600243B
:102020000CE0295D0A4803F005FC00BF8021084848
:1020300003F038FB0028F9D0601C84B2B442F0DB16
:1020400000BF4021024803F02DFB0028F9D070BDED
:102050000044004070B505460C461646FFF720FFC9
:10206000294607A003F0BEFF284600F011F80CB97E
:10207000012070BD3146204600F0B6F8F9E70000B7
:1020800045535033322054583A2025730000000045
:1020900070B504462046FEF72FF985B22946204642
:1020A000FFF7BAFF70BD000038B540F224411A486E
:1020B00003F005FB78B31848008800901648001D0F
:1020C00000880090BDF8000000211448FFF75AFC7A
:1020D0001248FFF709FDC0F5007084B2002C18DD2E
:1020E0000F48007890B9B4F5007F04DD4FF4007418
:1020F00001200C49087022460B490C48FEF7C6F82F
:102100000B48048001200649087002E001200549BF
:102110000870FFF7E1FE38BD004400406C0002404B
:10212000D8000020D9000020800500208007002072
:10213000D600002000B587B00121052002F0D2F8BA
:102140000121480402F0AEF80420ADF81800182070
:102150008DF81B0003208DF81A0006A9204800F016
:102160007DF90820ADF8180048208DF81B0006A95D
:102170001B4800F073F91B4803F046FA4FF4E130B6
:1021800002900020ADF80C00ADF80E00ADF8100084
:10219000ADF814000C20ADF8120002A9114803F0AC
:1021A000DDFA012240F224410E4803F0B2FA012286
:1021B00040210C4803F01EFA26208DF8040001206F
:1021C0008DF805008DF806008DF8070001A801F0D4
:1021D000E5F90121034803F001FA07B000BD000052
:1021E00000080140004400402DE9F041ADF5027DBA
:1021F00005460F460024A0464FF440712748FEF7DD
:102200005EF846E001AA4FF4007102A8FFF7D4FE81
:10221000002839D002AABDF8041021A003F0E2FE84
:1022200040F2FF20844213D2BDF80460001BB0428C
:1022300003D240F2FF20001B86B21849081932462B
:1022400002A9FEF723F8A01984B20020134908550B
:102250004DB129461148FEF73DF820B101200DF59A
:10226000027DBDE8F08113A10C48FEF733F848B9B0
:1022700012A10A48FEF72EF820B912A10748FEF76E
:1022800029F808B10020EAE70A20FFF752FC08F11C
:102290000A08B845B6D30020E1E700008009002015
:1022A00045535033322052583A20252E2A730D0AB6
:1022B000000000004552524F520000004641494C78
:1022C00000000000627573790000000010B524E082
:1022D00000F038F858B1192006F0B6FA28B101F02C
:1022E000FBF901F05DFF06F0A1FA002010BD1920F6
:1022F00006F0AAFA70B102F075FD38B101F0ECF900
:1023000001F04EFF06F092FA0020EFE701F048FFDF
:1023100006F08CFA052006F0A5F8D9E770B504465A
:1023200000250AE000F00EF808B1012070BD05207C
:1023300006F098F805F1140085B2A542F2DB002002
:10234000F4E7000008B5002269460848006806F076
:102350001DFD012807D19DF80000032801D10120AF
:1023600008BD0020FCE70020FAE70000E0000020A4
:1023700008B500BF002269463548006806F006FD32
:1023800001283DD19DF8000001280BD1314800689B
:10239000401E3049086008460068002830DC0220F2
:1023A00008602DE09DF8000002280BD12948006844
:1023B000401C2849086008460068032820DB0120EB
:1023C00008601DE09DF8000003280CD1192006F0DC
:1023D0003BFA28B101F080F901F0E2FE06F026FA9E
:1023E0001C48006808BD9DF80000042808D1C102FF
:1023F000194800F0C7F84FF48051174800F0C4F8AE
:10240000192006F021FAF8B112480068012802D01C
:10241000022816D10AE002F00FFC102320223021FE
:10242000002001F0FBFC01F0BBFE0AE002F004FC1E
:10243000102320223021602001F0F0FC01F0B0FEDA
:1024400000BF00BF06F0F2F90C2006F00BF891E790
:10245000E00000205C000020000C01402DE9F0416C
:10246000024600250026002000230024002791F8C2
:1024700003C00CF00F0591F803C00CF0100CBCF178
:10248000000F03D091F802C04CEA050591F800C096
:10249000BCF1000F31D0146800202BE04FF0010C8C
:1024A0000CFA00F3B1F800C00CEA03069E4220D1FA
:1024B00083004FF00F0C0CFA03F7BC4305FA03FC42
:1024C0004CEA040491F803C0BCF1280F06D14FF088
:1024D000010C0CFA00FCC2F814C00AE091F803C029
:1024E000BCF1480F05D14FF0010C0CFA00FCC2F80A
:1024F00010C0401C0828D1D31460B1F800C0BCF152
:10250000FF0F34DD546800202EE000F1080C4FF07E
:10251000010808FA0CF3B1F800C00CEA03069E4269
:1025200021D183004FF00F0C0CFA03F7BC4305FADE
:1025300003FC4CEA040491F803C0BCF1280F05D158
:1025400000F1080C08FA0CF8C2F8148091F803C0E6
:10255000BCF1480F07D100F1080C4FF0010808FA50
:102560000CF8C2F81080401C0828CED35460BDE897
:10257000F0810246002093680B400BB1012000E07F
:102580000020704741617047016170470AB10161E5
:1025900000E041617047000008B500BF19223B49C7
:1025A0003B48006806F0F2FB01280DD1374800785F
:1025B000012801D1002008BD34480078022803D149
:1025C000FFF72CFBFFF7F0FA00226946314800685C
:1025D00006F0DCFB012834D19DF8000001280BD166
:1025E0002A480078401E29490870084600780028CB
:1025F00027DC0220087024E09DF8000002280BD19F
:1026000022480078401C21490870084600780328B9
:1026100017DB0120087014E09DF80000032810D19A
:10262000192006F011F928B101F056F801F0B8FDB3
:1026300006F0FCF80023192214491548006806F03A
:1026400055FA192006F000F9D8B102F051FC0F48F4
:102650000078012802D002280ED106E010231A4685
:102660000021084601F0DAFB06E01023502219464B
:10267000002001F0D3FB00BF00BF01F091FD06F088
:10268000D5F80C2005F0EEFE88E70000A40000203D
:10269000E4000020E000002008B526E000226946A2
:1026A0001248006806F072FB01280FD19DF8000067
:1026B00003280BD1192006F0C7F828B101F00CF857
:1026C00001F06EFD06F0B2F8002008BD192006F0FA
:1026D000BBF838B101F000F802F022FC01F060FD17
:1026E00006F0A4F8062005F0BDFED7E7E0000020C4
:1026F00000BFFEE721B1028842F48062028004E05C
:1027000002884FF6FF331A400280704770B50246C8
:102710000024002500230020958A138B1B0445EA22
:10272000030626F07F4404EA01068E4201D101200F
:1027300000E0002070BD21B1028842F00102028059
:1027400004E002884FF6FE731A40028070470000D2
:1027500010B504460B48844209D10121480501F017
:10276000B1FD00214FF4001001F0ACFD08E00121A3
:10277000880501F0A7FD00214FF4800001F0A2FDC3
:1027800010BD00000054004021B1028842F4807264
:10279000028004E002884FF6FF631A40028070470F
:1027A00021B1028842F40072028004E002884FF6F0
:1027B000FF531A40028070470CB5024600200023E8
:1027C0000193009300920B0F019321F07F41019B35
:1027D0001BB1009B1433009303E0090C009B1833DA
:1027E0000093009B1B680B400BB1012000E0002010
:1027F0000CBD00002DE9F04385B004460D460026CF
:10280000B1460427DFF8CC80A6884FF6C07006409A
:10281000684601F087FDDDF808802F48B8FBF0F02E
:102820001FFA80F946EA0906A68020884FF6FE7155
:102830000840208000262949286888420CD828684A
:102840004000B8FBF0F087B2042F00DA04273E43C3
:1028500009F10100208427E0E8884BF6FF718842E7
:1028600006D1286800EB4000B8FBF0F087B209E021
:10287000286800EBC00101EB0010B8FBF0F087B254
:1028800047F48047C7F30B0008B947F0010747F446
:10289000004006434FF4967009FB00F04FF47A7144
:1028A00090FBF1F0401C2084A683208840F00100BA
:1028B000208026884FF6F5300640A88869890843AD
:1028C00006432680A88929890843208105B0BDE8F0
:1028D000F083000000127A0040420F00A086010041
:1028E0000146088AC0B2704712B141F0010102E00E
:1028F0004FF6FE731940018270470182704721B183
:10290000028842F40042028003E00288C2F30E0211
:102910000280704710B510211048FFF72AFEC8B991
:102920000F4800884EF66021884204DA0C4800887F
:10293000401C0B4908800A480088B0F57A7F0CDB00
:102940000848007848B90420074908700120054963
:10295000087002E000200249088010BD0008014014
:10296000AE000020B0000020AC00002072B6034989
:1029700008780021014A117062B67047AC0000204F
:1029800010B502210A48FFF7F4FD08B9012010BD77
:1029900040210848FFF7EDFD08B90220F7E71021B4
:1029A0000448FFF7E6FD08B90320F0E70020EEE752
:1029B000000C01400008014008B50121082001F089
:1029C00091FC0121042001F08DFC48208DF80300CA
:1029D0000220ADF8000003208DF80200694605488A
:1029E000FFF73CFD5020ADF8000069460248FFF7B4
:1029F00035FD08BD000C01400008014010B5144829
:102A00000078401C124908700846007814281EDB24
:102A1000002008700F4800780F490870FFF7B0FFDA
:102A20000C4908700C48007888B10846007870B9E5
:102A300009480078032806D10848007818B100201A
:102A40000649087003E0044800780549087010BD85
:102A5000B1000020B2000020B3000020B000002030
:102A6000AC00002010B54FF400410248FFF78CFD88
:102A700010BD0000000C014010B54FF400410248A9
:102A8000FFF780FD10BD0000000C014008B50121DA
:102A9000082001F027FC10208DF803004FF430408F
:102AA000ADF8000003208DF8020069460948FFF7E1
:102AB000D5FC4FF400410748FFF766FD4FF4805105
:102AC0000448FFF75FFD4FF400510248FFF75CFD3B
:102AD00008BD0000000C014008B500BF19224149A3
:102AE0004148006806F052F9012811D13D480078AC
:102AF000012801D1002008BD3A480078022801D100
:102B0000FFF7B0FF37480078032801D1FFF7B4FF83
:102B1000002269463548006806F038F9012834D1AA
:102B20009DF8000001280BD12E480078401E2D4949
:102B3000087008460078002827DC0320087024E08D
:102B40009DF8000002280BD126480078401C25493A
:102B5000087008460078042817DB0120087014E08C
:102B60009DF80000032810D1192005F06DFE28B152
:102B700000F0B2FD01F014FB05F058FE002319220D
:102B800018491948006805F0B1FF192005F05CFEEE
:102B900020B302F029FA13480078012804D0022853
:102BA00009D0032815D10DE010231A46002108464C
:102BB00001F034F90DE0182324221421084601F015
:102BC0002DF906E018231A461421482001F026F9B1
:102BD00000BF00BF01F0E4FA05F028FE0C2005F06C
:102BE00041FC7BE770000020E4000020E0000020B2
:102BF0002DE9FE4F78487949794B7A4ACDE90010A2
:102C000079497A4800F010F906F0CCFA0446784881
:102C1000006818B976480460BDE8FE8F74490968F9
:102C2000611A8800FDF799FE06467249FDF7C6FC59
:102C300005466F4804606A48B0F90000FDF784FE5D
:102C400080466D49FDF7BAFC07462946FDF784FC2E
:102C500006466A4801683046FDF726FC6849086068
:102C60005E48B0F90000FDF76FFE80466249FDF74F
:102C7000A5FC07462946FDF76FFC0646614801683A
:102C80003046FDF711FC604908605348B0F9000078
:102C9000FDF75AFE80465849FDF790FC0746294645
:102CA000FDF75AFC0646594801683046FDF7FCFB23
:102CB000574908604B48B0F90000FDF745FE8046D3
:102CC0004948B0F90000FDF73FFE8146414604F057
:102CD00093F907464F49FDF73FFC06464E49FDF77D
:102CE0006DFC4E4908603F48B0F90000FDF72CFE2E
:102CF00001903C48B0F90000FDF726FE00900199D4
:102D0000FDF72AFC83463848B0F90000FDF71CFEA9
:102D100001903548B0F90000FDF716FE00900199CA
:102D2000FDF71AFC59460290FDF7BEFB824605F0FE
:102D300049F980462D48B0F90000FDF705FE80F006
:102D400000494146484604F057F907463149FDF726
:102D500003FC06463049FDF731FC31490860314833
:102D600001684FF07E50FDF7F1FB80462B4801686B
:102D70004046FDF7F1FB06462148016829480068F6
:102D8000FDF7EAFB07463146FDF78EFB1B4908605D
:102D9000244801684FF07E50FDF7D8FB804620485C
:102DA00001684046FDF7D8FB0646174801681D48F4
:102DB0000068FDF7D1FB07463146FDF775FB114969
:102DC00008601348016817480068FDF7C5FB0F4904
:102DD000086000BF20E700007C0000207A0000208F
:102DE000780000207600002074000020720000208F
:102DF000A800002000007A4433338341940000206F
:102E000088000020980000208C0000209C000020FA
:102E10009000002000003443DA0F49408000002079
:102E200084000020A00000202DE9F05F06460F4638
:102E300090469946DDE90AAB3B2000F067F804466E
:102E40003C2000F063F8054645EA042000B23080DB
:102E50003D2000F05BF804463E2000F057F80546A0
:102E600045EA042000B238803F2000F04FF80446C5
:102E7000402000F04BF8054645EA042000B2A8F8CF
:102E80000000432000F042F80446442000F03EF8E1
:102E9000054645EA042000B2A9F80000452000F0EC
:102EA00035F80446462000F031F8054645EA04208E
:102EB00000B2AAF80000472000F028F80446482095
:102EC00000F024F8054645EA042000B2ABF8000003
:102ED000BDE8F09F10B500F019FA01216B2000F059
:102EE00034F800216C2000F030F80421192000F0A3
:102EF0002CF806211A2000F028F818211B2000F0D9
:102F000024F818211C2000F020F810BD70B50446EC
:102F100000F070FAD02000F058FA00F021FA2046B4
:102F200000F053FA00F01CFA00F064FAD12000F02F
:102F30004CFA00F015FA00F022FA0546012000F0E4
:102F400038FA00F065FA284670BD70B505460C46A3
:102F500000F050FAD02000F038FA00F001FA2846CC
:102F600000F033FA00F0FCF9204600F02EFA00F0F1
:102F7000F7F900F04DFA70BD08B500BF00226946B0
:102F80001448006805F002FF01280FD19DF80000E9
:102F900003280BD1192005F057FC28B100F09CFB49
:102FA00001F0FEF805F042FC002008BD192005F0F4
:102FB0004BFC58B102F034F810231A4600210846A1
:102FC00000F02CFF01F0ECF805F030FC062005F0D5
:102FD00049FAD3E7E000002000BFFEE738B5012042
:102FE00056490870022500BF002400226946544853
:102FF000006805F0CBFE012836D19DF800000128BD
:103000000ED101254D4908704E480078401E4D49AB
:10301000087008460078002826DC0820087023E0A5
:103020009DF8000002280FD10225012043490870B5
:1030300044480078401C4349087008460078082836
:1030400012DD012008700FE09DF8000003280BD16D
:10305000192005F0F9FB28B100F03EFB01F0A0F8C3
:1030600005F0E4FB37480478012C01D1002038BD7D
:10307000022C04D100F068F802F0ECF828E0032CF0
:1030800004D100F061F8FFF727FD21E0042C04D102
:1030900000F05AF8FFF770FF1AE0052C04D100F099
:1030A00053F8FFF779FA13E0062C04D100F04CF83E
:1030B000FFF70CF90CE0072C04D100F045F8FFF7FE
:1030C000EBFA05E0082C03D100F03EF8FEF73EFBDA
:1030D0001C480078012811D1012D06D100220121C0
:1030E0001648007801F0BEFB23E0022D21D100221A
:1030F00011461248007801F0B5FB1AE0012D0AD103
:1031000010480078401EC2B20E4801780B48007883
:1031100001F0A8FB0DE0022D0BD10A480078401EFB
:10312000C2B208480078801EC1B20448007801F09D
:1031300099FB022005F096F956E700006800002090
:10314000E00000207100002010B5102429E000F0FC
:10315000C3FA1548007801280ADB144A1278A2F154
:103160003001114A1278521ED0B2224600F0BAF84D
:1031700022460E4801780C48007800F0B3F80A495E
:103180000978491CC8B2224608490978303100F054
:10319000A9F801F005F8012005F064F904F1100028
:1031A000C4B2402CD3DD10BD6400002066000020B6
:1031B00008B500F091FA44482C231A460A210090E1
:1031C0002A2000F0C1FE4148007841490978884230
:1031D00014DA4048007840490978401A3D4908709F
:1031E0000846007850B939480078401C37490870C3
:1031F00000203A490870302036490870334800787A
:1032000033490978884215DD324800783249097817
:103210000844304908700846007860280AD12B48D5
:103220000078401E2949087000202C490870302081
:10323000284908702548007801280ADB254A1278B9
:10324000A2F13001214A1278521ED0B2102200F0B1
:1032500049F81E48007802280ADB1E4A1278A2F1BB
:1032600060011A4A1278921ED0B2102200F03AF889
:103270001022184801781548007800F033F81349F7
:103280000978491CC8B2102212490978303100F07F
:1032900029F80E490978891CC8B210220D4909780D
:1032A000603100F01FF80A480078082809DA0C4855
:1032B0000749097850F82120062300212C2000F02E
:1032C000E7FE00F06DFF08BD12B5000864000020A5
:1032D00065000020660000206700002068000020D4
:1032E00030000020F8B504460D461646082C09DAD1
:1032F000054800EBC41020231A46314600902846AA
:1033000000F022FEF8BD000012B1000808B501214E
:10331000082000F0E7FF14208DF803004FF4405020
:10332000ADF8000003208DF8020069460448FFF75D
:1033300095F84FF440510248FFF726F908BD000008
:10334000000C014010B54FF480510448FFF711F90B
:1033500004460A20FEF717FC204610BD000C014071
:1033600010B5012000F06EF8012000F05DF8FFF7C5
:10337000E9FF0446002000F057F8204610BD70B564
:103380000025012000F05EF800240EE0012000F08E
:103390004BF8FFF7D7FF012802D1802020410543D9
:1033A000002000F041F8601CC4B2082CEEDB284677
:1033B00070BD10B50446204600F044F8012000F02E
:1033C00033F8002000F030F810BD70B50546002439
:1033D0000DE08021214101EA050000F033F80120D1
:1033E00000F022F8002000F01FF8601CC4B2082C86
:1033F000EFDB70BD10B5012000F024F8012000F0D3
:1034000013F8002000F01EF8002000F00DF810BDA9
:1034100010B5002000F016F8012000F005F801209A
:1034200000F010F810BD000010B5044622464FF41D
:1034300000510348FFF7AAF80A20FEF7A4FB10BDCD
:10344000000C014010B5044622464FF48051034859
:10345000FFF79CF80A20FEF796FB10BD000C014018
:1034600010B50121080700F01DFF0121C80600F07A
:1034700019FF012000F0E8FE0420FEF73BFA4BF2B2
:10348000B331884220D0012000F0D4FF00BF41209A
:1034900000F0B2FF0128FAD1000200F0EBFF01209A
:1034A00000F0E2FF01F034F801F028F847F6FF7071
:1034B00001F014F801F022F800F030F84BF2B331CB
:1034C0000420FEF725FA03E001F022F801F016F8D7
:1034D00010BD000010B58CB000F0E8FF00F5E14031
:1034E0000B900BA8FDF798FB04462C22214668465A
:1034F000FCF7CCFE059800F26C7007490860049850
:10350000401C4860039888600298C8600198086170
:10351000009848610CB010BD1400002010B58CB0AC
:1035200010480068A0F26C7006900E484068401E7B
:1035300005900C48806804900A48C06803900948C8
:103540000069029007484069019001A8FCF74AFE13
:10355000A0F5E144204600F0B3FF00F0CFFF0CB02F
:1035600010BD0000140000207047000000F01F0292
:1035700001219140024A430942F82310704700009C
:1035800080E100E000F01F02012191404209920019
:1035900002F1E022C2F800117047000070B500216E
:1035A00000230F22C47804B3154C246804F4E064AB
:1035B000C4F5E064210AC1F10403CA40447804FA66
:1035C00003F184781440214309010E4C0678A1557B
:1035D000047804F01F050124AC4005786D11AD009E
:1035E00005F1E025C5F8004109E0047804F01F0565
:1035F0000124AC40044D0678761145F8264070BD94
:103600000CED00E000E400E080E100E0024901434D
:10361000024A1160704700000000FA050CED00E05E
:10362000062854D2DFE800F053031323334329491B
:1036300049680C2903DD0121264A516006E025492D
:103640004968002902DC0C21224A516040E02149EE
:1036500089681F2903DD01211E4A916006E01D498A
:103660008968002902DC1F211A4A916030E019495B
:10367000C968172903DD0021164AD16006E0154903
:10368000C968002902DA1721124AD16020E01149E5
:1036900009693C2903DB00210E4A116106E00D494E
:1036A0000969002902DA3B210A4A116110E009493F
:1036B00049693C2903DB0021064A516106E00549BE
:1036C0004969002902DA3B21024A516100E000BF4A
:1036D00000BF70471400002000200CE0002106E02D
:1036E0000022064B03EBC0135A544A1CD1B2802966
:1036F000F6DB421CD0B20828F0DB704780010020C6
:103700002DE9F04304460D4616461F46284638E08C
:10371000224631E0002A2DDB7F2A2BDC002829DB22
:103720003F2827DC4FEAE07C00EB5C7C4FEAEC0CA6
:10373000DFF8588008EBCC1C1CF802C003464FEAA7
:10374000E07800EB58784FEAE808A0EBC8094FF0A2
:10375000010808FA09F82CEA080C01464FEAE0785B
:1037600000EB58784FEAE808DFF8209009EBC8181A
:1037700008F802C0511C0AB2A1199142CADC411CCE
:1037800008B2E9198142C3DCBDE8F0838001002062
:103790002DE9F04F07460E4691469A46C9F1010BB6
:1037A00000254C46321911B27A1910B200F036FADF
:1037B000321B11B27A1B10B200F030FA721911B23A
:1037C0003A1910B200F02AFA721B11B23A1B10B269
:1037D00000F024FABAF1000F0FD060420FFA80F81F
:1037E00009E006EB080001B2384600F017FA08F1CC
:1037F00001000FFA80F8A045F3DB75E0681C05B204
:10380000BBF1000F05DA6800401C58440FFA80FB3A
:1038100007E0601E04B2281B4000401C58440FFA09
:1038200080FB321911B27A1910B200F0F7F972194F
:1038300011B23A1910B200F0F1F9321B11B27A1B31
:1038400010B200F0EBF9721B11B23A1B10B200F08B
:10385000E5F9321B11B27A1910B200F0DFF9721BD0
:1038600011B23A1910B200F0D9F9321911B27A1B1B
:1038700010B200F0D3F9721911B23A1B10B200F075
:10388000CDF9BAF1000F2FD060420FFA80F811E0A5
:1038900006EB080211B27A1910B200F0BFF906EB7C
:1038A000080211B27A1B10B200F0B8F908F1010059
:1038B0000FFA80F8A045EBDB68420FFA80F811E0C0
:1038C00006EB080211B23A1B10B200F0A7F906EBA2
:1038D000080211B23A1910B200F0A0F908F1010083
:1038E0000FFA80F8A845EBDBA54287DBBDE8F08F37
:1038F0002DE9FF4F97B007460E469B46DDF864A0C2
:10390000D94600254C46C9F10000FDF72BF80022EE
:10391000C14BCDE90801FCF78FFECDE90C010AFB94
:103920000AF0FDF71FF8CDE90A01DDE90C23FCF7E9
:103930002AFFCDE9100109FB09F0FDF713F8CDE9E5
:103940000E01DDE91023FCF777FECDE91201FDF74A
:10395000BBF815902498A8B160420FFA80F80FE0E8
:1039600006EB080001B2384600F058F906EB0800F3
:1039700001B2384600F052F908F101000FFA80F860
:10398000A045EDDB321911B27A1910B200F046F9F8
:10399000321B11B27A1B10B200F040F9321911B289
:1039A0007A1B10B200F03AF9321B11B27A1910B238
:1039B00000F034F95BE000211598FDF7A1F80DD86F
:1039C00009FB09F16A00D21C01FB02F0FCF7BCFF05
:1039D00013901599FCF768FD159014E009FB09F1A7
:1039E0006A00D21C51430AFB0AF26300C3F10203CE
:1039F00002FB0310FCF7A8FF13901599FCF754FD88
:103A00001590601E04B2681C05B22498B8B16042DB
:103A10000FFA80F811E006EB080211B27A1910B221
:103A200000F0FCF806EB080211B27A1B10B200F0AD
:103A3000F5F808F101000FFA80F8A045EBDB321928
:103A400011B27A1910B200F0E9F8321B11B27A1BE8
:103A500010B200F0E3F8321911B27A1B10B200F084
:103A6000DDF8321B11B27A1910B200F0D7F82046F7
:103A7000FCF778FF0022684BCDE90A01FCF77DFED8
:103A8000CDE90E010AFB0AF0FCF76CFFCDE90C0151
:103A9000DDE90E23FCF777FECDE9120109FB09F100
:103AA0006A1C01FB02F0FCF75DFFCDE91001DDE9C6
:103AB0001223FCF7D9FFFFF47EAF0AFB0AF101FBEA
:103AC00009F101FB09F0FCF74DFFCDE910010AFBFC
:103AD0000AF1621E514301FB02F0FCF743FFCDE9FE
:103AE0000C012846FCF73EFF00224B4BCDE90401B8
:103AF000FCF7A2FDCDE908012846FCF733FF0022C0
:103B0000454BCDE90001FCF797FDCDE9040109FB28
:103B100009F0FCF727FFCDE90201DDE90423FCF7FA
:103B200032FECDE90601DDE90823FCF72CFECDE9E4
:103B30000A01DDE90C23FCF77FFDCDE90E01DDE98B
:103B40001023FCF71AFECDE91201FCF7BDFF14901B
:103B50005CE000211498FCF7D3FF15D809FB09F1AC
:103B60006A00921C51430AFB0AF26300C3F103038B
:103B700002FB0310FCF7E8FE13901499FCF794FC89
:103B80001490681C05B20DE00AFB0AF16200C2F154
:103B9000030201FB02F0FCF7D7FE13901499FCF727
:103BA00083FC1490601E04B22498B8B160420FFAEE
:103BB00080F811E006EB080211B27A1910B200F099
:103BC0002DF806EB080211B27A1B10B200F026F8AD
:103BD00008F101000FFA80F8A045EBDB321911B2B1
:103BE0007A1910B200F01AF8321B11B27A1B10B217
:103BF00000F014F8321911B27A1B10B200F00EF86E
:103C0000321B11B27A1910B200F008F8002CA0DCB7
:103C10001BB0BDE8F08F00000000E03F70B5034628
:103C2000002B20DB7F2B1EDC00291CDB3F291ADC4C
:103C3000CC1701EB5474E4100B4D05EBC414E45C99
:103C40000A46CD1701EB5575ED10A1EBC506012510
:103C5000B5402C430846CD1701EB5575ED10024ECB
:103C600006EBC515EC5470BD8001002038B500246A
:103C700006E0002500E06D1CB5F57A7FFBD3641CDF
:103C8000B4F57A7FF5D30121082000F02BFB142036
:103C90008DF8030003208DF802004FF48070ADF81A
:103CA000000069460848FEF7D9FB4FF40070ADF8F4
:103CB000000069460448FEF7D1FB012000F084FAB9
:103CC000012000F08DFA38BD000C014070B50546AA
:103CD000002411E080212141294009B1012100E0A7
:103CE0000021084600F07CFA012000F06DFA002067
:103CF00000F06AFA601CC4B2082CEBDB012000F073
:103D000063FA002000F060FA70BD10B5012000F0E9
:103D100067FA012000F058FA002000F061FA002054
:103D200000F052FA10BD10B5002000F059FA012041
:103D300000F04AFA012000F053FA10BD10B5FFF769
:103D400095FFAE2000F058FAD52000F055FA8020FB
:103D500000F052FAA82000F04FFA3F2000F04CFA91
:103D6000D32000F049FA002000F046FA402000F08D
:103D700043FAA12000F040FAC82000F03DFADA2012
:103D800000F03AFA122000F037FA812000F034FAFD
:103D9000CF2000F031FAD92000F02EFAF12000F007
:103DA0002BFADB2000F028FA302000F025FAA420BE
:103DB00000F022FAA62000F01FFA8D2000F01CFA75
:103DC000142000F019FAAF2000F016FAFFF784FC77
:103DD00000F0E6F910BD10B50246012000E05043A6
:103DE0000B1EA1F10101FAD110BD0FB470B5C2B024
:103DF00005460E4614464AA8019002A8019A499920
:103E000002F02EF900200190234602AA31462846EE
:103E100000F03EF942B070BC5DF814FB2DE9F043B0
:103E200004460D4616461F46284638E0224631E035
:103E3000002A2DDB7F2A2BDC002829DB3F2827DC0A
:103E40004FEAE07C00EB5C7C4FEAEC0CDFF858803A
:103E500008EBCC1C1CF802C003464FEAE07800EBEC
:103E600058784FEAE808A0EBC8094FF0010808FAB3
:103E700009F88CEA080C01464FEAE07800EB587824
:103E80004FEAE808DFF8209009EBC81808F802C0EC
:103E9000511C0AB2A1199142CADC411C08B2E919AD
:103EA0008142C3DCBDE8F0838001002070B5054687
:103EB0000C4645F0B00000F09FF9102141EA1410C3
:103EC00000F09AF904F00F0000F096F970BD0000C0
:103ED000F8B506460F4614461D46082D0CD1A4F130
:103EE0002000164901EB00101023082239460090EB
:103EF000304600F029F820E0062D0ED1A4F1200074
:103F000000EB40000E4901EB400008230622394631
:103F10000090304600F018F80FE00C2D0DD1A4F100
:103F2000200000EBC000074901EB800018230C22A1
:103F300039460090304600F007F8F8BDEC960008CE
:103F4000DC9C0008169F00082DE9FF4F80460E46B6
:103F50009146DDF834B0002500244A4631464046FB
:103F6000039BFFF7CDFB00BF5EE0002558E008EBA8
:103F70000500002852DB08EB05007F284EDC3046A8
:103F8000F11706EB5171C9100FB2F11706EB517121
:103F9000C910A6EBC10A002E05DA781E07B20AF195
:103FA00008000FFA80FA3819002817DB381907289B
:103FB00014DC3819224901EBC01008EB0501405C04
:103FC00004FB09511BF8011001FA0AF108433919E1
:103FD0001B4A02EBC11108EB050288543819401C3A
:103FE00000281BDB3819401C072817DC3819401C37
:103FF000134901EBC01008EB0501405C04FB0951BB
:104000001BF80110CAF10802114108433919491C73
:104010000B4A02EBC11108EB05028854681CC5B2BB
:104020004D45A4DB601CC4B20399481EC11700EBC8
:104030005171012202EBE101A14296DCBDE8FF8F44
:10404000800100202DE9F0470646894617461D46A7
:10405000DDF82080002417E0281B411E0A20FFF70E
:10406000BAFEB7FBF0F00A21B0FBF1F201FB12003F
:1040700000F1300A04FB086108B243465246494643
:10408000FFF726FF601CC4B2AC42E5DBBDE8F08759
:104090002DE9FE4F07468A46144698460025AB4652
:1040A000002672E0605D00F0800058B94FF0010B0F
:1040B0002846691C8DB2205C8DF8040000208DF824
:1040C000050013E04FF0020B2846691C8DB2205CFE
:1040D0008DF80400605D00B95AE02846691C8DB275
:1040E000205C8DF8050000208DF80600BBF1010F63
:1040F0000BD19DF80420B91908B243465146FFF789
:10410000E7FE06EB080086B23FE04FF000090EE044
:10411000C9EBC90101EB81011F4A881801A9FCF70D
:10412000F2F800B90EE009F101001FFA80F9C9EBBD
:10413000C90101EB8101184A881818A1FCF7E3F8BE
:104140000028E5D100BFB8F1080F12D1C9EBC900B2
:1041500000EB800010490844C01CB919009008B257
:1041600010231A465146FFF7EFFE06F1100086B203
:104170000BE0B8F1060F08D1B91908B206233F22A7
:104180005146FFF7A5FEB01D86B2605D002889D1BB
:1041900000BFBDE8FE8F000072AC00080000000008
:1041A00010B500240BE000212046FFF77FFE0549F3
:1041B00001EBC410802100F02FF8601CC4B2082C61
:1041C000F1DB10BD8001002010B5044622464FF4FB
:1041D00080710248FEF7DAF910BD0000000C0140C2
:1041E00010B5044622464FF400710248FEF7CEF99E
:1041F00010BD0000000C014010B50446FFF785FD1E
:104200007820FFF763FD0020FFF760FD2046FFF7F1
:104210005DFDFFF788FD10BD70B505460E46FFF742
:1042200074FD7820FFF752FD4020FFF74FFD00247A
:1042300004E0285DFFF74AFD601CC4B2B442F8DB1D
:10424000FFF771FD70BD0000014908627047000072
:1042500000000E4210B5FFF703F9FEF7ADFBFEF7C5
:1042600015FCFEF737FEFDF719F910BD01460020D9
:10427000034A506820F440400843506070470000F3
:104280000010024029B1064A52690243044B5A61A8
:1042900004E0034A52698243014B5A6170470000AF
:1042A0000010024029B1064AD2690243044BDA6188
:1042B00004E0034AD2698243014BDA61704700008F
:1042C0000010024029B1064A12690243044B1A61E8
:1042D00004E0034A12698243014B1A6170470000EF
:1042E0000010024029B1064A92690243044B9A61C8
:1042F00004E0034A92698243014B9A6170470000CF
:104300000010024029B1064AD2680243044BDA6029
:1043100004E0034AD2688243014BDA607047000030
:104320000010024030B500210022002400232D4D52
:104330006D6805F00C0121B1042905D0082923D1AD
:1043400005E0294D056022E0274D05601FE0254D61
:104350006D6805F47012234D6D6805F480340225F4
:1043600005EB92421CB9214D554305600BE01D4DF4
:104370006D6805F400351DB11C4D5543056002E024
:10438000194D5543056002E0174D056000BF00BFA1
:10439000144D6D6805F0F0010909154D6B5C056859
:1043A000DD4045600F4D6D6805F4E061090A104D70
:1043B0006B5C4568DD4085600A4D6D6805F46051B1
:1043C000C90A0B4D6B5C4568DD40C560054D6D68E5
:1043D00005F44041890B074D6B5CC568B5FBF3F5EF
:1043E000056130BD0010024000127A0000093D0056
:1043F000000000201000002010B50146002200231C
:1044000000204A11012A02D1094C236806E0022A41
:1044100002D1074C236A01E0054C636A01F01F02D8
:10442000012494401C400CB1012000E0002010BD8C
:104430000010024000210B4A11700A4A203A82F80B
:104440002010012802D0042808D103E00121054AE8
:10445000117004E00521034A117000E000BF00BFA5
:1044600070470000201002400149086070470000BA
:104470003C0442420249096A0143014A1162704701
:10448000001002400348008840F0100001490880F5
:104490007047000004280040034800884FF6EF7181
:1044A0000840014908807047042800400021034863
:1044B0000188001F008841EA004070471C28004026
:1044C00000B50246FFF7DEFF100C03490880091D06
:1044D0000A80FFF7E1FF00BD1828004000B5024642
:1044E000FFF7D0FFC2F3034003490880091D0A808B
:1044F000FFF7D2FF00BD00000828004000BF0348BE
:10450000008800F020000028F9D0704704280040FF
:10451000074800884FF6F77108400549088000BF3A
:104520000348008800F008000028F9D07047000018
:104530000428004000B585B001218803FFF7D2FEB2
:1045400001210420FFF7CEFE18208DF813004FF450
:104550000070ADF8100003208DF8120004A9154872
:10456000FDF77CFF48208DF813004FF48060ADF814
:10457000100003208DF8120004A90E48FDF76EFF0D
:104580004FF4E13000900020ADF80C000C20ADF8A5
:104590000A000020ADF80800ADF80600ADF80400F0
:1045A0006946054801F0DAF80121034801F016F8E0
:1045B00005B000BD000801400038014010B50446B8
:1045C0002146054801F036F900BF8021024801F07C
:1045D00069F80028F9D010BD0038014010B5042159
:1045E000022000F0F3F810BD10B50521032000F003
:1045F000EDF810BD10B50621042000F0E7F810BD5D
:1046000010B50321012000F0E1F810BD10B507211D
:10461000052000F0DBF810BD10B500F001F810BD6A
:104620000CB50020019000903348006840F48030C1
:104630003149086000BF3048006800F40030009045
:104640000198401C0190009818B90198B0F5A06F2E
:10465000F1D12948006800F4003010B10120009029
:1046600001E0002000900098012843D12348006811
:1046700040F01000214908600846006820F003005F
:1046800008600846006840F0020008601A48406868
:10469000194948600846406848600846406840F448
:1046A000806048600846406820F47C1048600846F6
:1046B000406840F4E81048600846006840F08070A8
:1046C000086000BF0C48006800F000700028F9D0B6
:1046D0000948406820F003000749486008464068E0
:1046E00040F00200486000BF0348406800F00C0042
:1046F0000828F9D10CBD0000001002400020024043
:1047000070B50120304908605DE0002400F088F8B1
:104710000546012D0BD12C480068401E2A4908602F
:1047200008460068002814DC0720086011E0022D0C
:104730000BD125480068401C2349086008460068E2
:10474000082806DB0120086003E0032D01D11E4884
:104750000478012C0BD1192004F076F828B1FEF76B
:10476000BBFFFFF71DFD04F061F8002070BD022CB7
:1047700002D100F071F817E0032C02D1FFF740FFDF
:1047800012E0042C02D1FFF729FF0DE0052C02D125
:10479000FFF72AFF08E0062C02D1FFF72BFF03E00A
:1047A000072C01D1FFF732FF07480068042804DC1A
:1047B00005490878FDF7B6FA03E003490878FDF7E4
:1047C00014FB00F028F8A0E7B400002070B50646FE
:1047D0000D4600BF00F024F80446012C04D101214D
:1047E0003046FDF7A5F80AE0022C04D1002130463E
:1047F000FDF79EF803E0032C01D1002070BD042DCD
:1048000003DC2846FDF7C4FA02E02846FDF71AFB50
:1048100000F001F8DEE710B5052003F023FE10BD1F
:1048200008B500200090002269460948006804F09D
:10483000ADFA012806D19DF80000064908709DF8E0
:10484000000008BD00200349087000BFF9E7000020
:10485000E00000202C00002010B502210020FFF70E
:10486000B5FF10BD70B506460C461546012E03D1A6
:104870000348047003480570FEF79AFC70BD000001
:10488000640000206500002008B500BF00226946D2
:104890003248006804F07AFA012839D19DF8000006
:1048A00001280BD12E480068401E2D49086008469B
:1048B000006800282CDC0220086029E09DF8000038
:1048C00002280BD126480068401C2549086008468C
:1048D000006803281CDB0120086019E09DF8000037
:1048E000032815D1192003F0AFFF28B1FEF7F4FE1D
:1048F000FFF756FC03F09AFF19480068012801D120
:10490000002008BD16480068022801D1FFF7F8FE14
:10491000192003F099FFE8B1FEF7DEFE00F038FC45
:104920000F480068012802D002280ED106E01023AB
:104930001A4600210846FFF771FA06E010236022AC
:1049400019460020FFF76AFA00BF00BFFFF728FCF6
:1049500003F06CFF0C2003F085FD97E7E0000020DA
:10496000600000202DE9FC412B4810231A4600214D
:1049700000900846FFF7E8FA082328A2002120202B
:10498000FFF786FB2748007868B9082326A218217C
:104990000020FFF77DFB082326A22C210020FFF733
:1049A00077FBBDE8FC812648B0F900402548058822
:1049B000002C11DA604206B20A2096FBF0F100FBEF
:1049C000116796FBF0F820A3082214210020CDE9FE
:1049D0000087FFF70AFA0EE00A2094FBF0F100FBD3
:1049E000114794FBF0F81CA3082214210020CDE904
:1049F0000087FFF7FAF90A2095FBF0F100FB115749
:104A000095FBF0F818A3082228210020CDE90087A3
:104A1000FFF7EBF900BFC4E7F2B000084148543299
:104A200030000000D400002041485432302045724C
:104A3000726F7200436865636B2049324332000035
:104A4000D0000020D200002054656D703A2D2564FE
:104A50002E2564430000000054656D703A202564E3
:104A60002E2564430000000048756D693A202564D6
:104A70002E2564252500000008B5174800788F28EA
:104A800008DBFBF79DFB032190FBF1F201FB120019
:104A9000124908701148007800EB4000104901EB02
:104AA00000100D4900900978C1F17F0012231022F7
:104AB0002C21FFF749FA08480078C0F17F00094926
:104AC000087005480078C0F18F0088702C2048706D
:104AD0003E20C87008BD0000BF000020BE000020BE
:104AE0001AB70008C00000202DE9F84F0024002567
:104AF00008E0FCF7CBFC4A490880084600880444DB
:104B0000681C85B240F6B8308542F2DB94FBF0F0C9
:104B10004349088008460088FBF71FFF8246414949
:104B2000FBF74CFD8146FBF78CFF07464FF06632E2
:104B30003D4BFBF728FE0546FBF7C6FF3B490860E7
:104B400037480088A0F6CC406421484340F2333116
:104B500090FBF1F03649086008460068002801DA49
:104B600000200860062003230090314804210268D9
:104B70005520FFF767FA0623252204216720FFF757
:104B8000A7F92B480068642808D12A4810231A4640
:104B9000002100906E20FFF7D7F93EE0244800681E
:104BA0000A2826DB22480068642822DA21481023DC
:104BB0001A46002100906E20FFF7C6F91C480068D5
:104BC0000A2190FBF1F0C0F10A00C5B21848006854
:104BD00090FBF1F0703006B206232A4605213046DC
:104BE000FEF78EFD0823062204215520FEF788FDDE
:104BF00013E0104810231A46002100906E20FFF7A2
:104C0000A3F906230A2205217020FEF779FD082367
:104C10000C2204215520FEF773FDBDE8F88F00003B
:104C20005000002000F07F4566660A4054000020D6
:104C300058000020C6B800080EB5FFF755FFFEF774
:104C400049FC1548806814494968134A126813A33F
:104C5000CDE900210290062200210846FFF7C5F8A1
:104C60000D4840690C4909690B4AD2680EA3CDE989
:104C7000002102900C2210210846FFF7B6F8082305
:104C80000DA230210020FFF703FA08230CA23021E7
:104C90006020FFF7FDF90EBD1400002025642D25CE
:104CA000642D256400000000253032643A2530323E
:104CB000643A253032640000B2CBB5A50000000094
:104CC000C9E8D6C30000000008B5064806490090B0
:104CD0000978C1F17F00082310220921FFF734F978
:104CE00008BD0000AAB70008C40000202DE9FC5F41
:104CF000002201A93148006804F048F8012805D1D4
:104D00009DF80400012801D12D4908702D48008824
:104D1000FBF723FE2C490090FBF71EFC83462B4932
:104D2000FBF74CFC8246FBF78CFE064603F0FAF8D4
:104D300004460022264BFBF726FD8046FBF768FE63
:104D4000244908701E480078D0B92349087800EB40
:104D5000D0714910A0EB410141B920481223102223
:104D60002C2100900020FFF7EFF815E01B483030B1
:104D7000122310222C2100900020FFF7E5F80BE011
:104D800016486030009013480078C0F12C011223BF
:104D900010220020FFF7D8F80020114908701020D9
:104DA00088700C480078C0F12C00487009480078E1
:104DB000C0F14000C870BDE8FC9F0000E00000208A
:104DC000C5000020C6000020DA0F494000007A44E8
:104DD00000003C40C8000020C4000020BAB7000812
:104DE000C900002038B500243AE0FEF775FC3E48C3
:104DF00004F10A0110231A4600901E20FFF7A4F8C0
:104E00003948203004F10A0110231A46009052203C
:104E1000FFF79AF801200090C4F10600C3B2062201
:104E200020212820FEF764FD01200090C4F1060037
:104E3000C3B2062220215820FEF75AFD2B48142326
:104E40001A46282100903620FFF77EF8FFF7A8F9D0
:104E50002820FDF763FA08B1012038BD601CC4B2F8
:104E6000032CC2DB002438E0FEF736FC1E48C4F1F8
:104E70000C0110231A4600901E20FFF765F81A480F
:104E80002030C4F10C0110231A4600905220FFF785
:104E90005BF801200090201DC3B2062220212820AB
:104EA000FEF726FD01200090201DC3B2062220211E
:104EB0005820FEF71DFD0D4814231A4628210090A6
:104EC0003620FFF741F8FFF76BF92820FDF726FAA7
:104ED00008B10120C1E7601CC4B2032CC4DBC820A8
:104EE000FDF71CFAB9E700004AB800088AB80008C4
:104EF00008B5074810231A46002100900846FFF71E
:104F000023F8082303A210210020FFF7C1F808BDF1
:104F1000F2B00008B9C8B8E8D0A1BFD6C1FA000005
:104F200070B500231E2220214020FEF731FC0D48E1
:104F300001684FF08440FBF7B7FA0646FBF730FDF7
:104F400004B2094801684FF08540FBF7FFFA0646B6
:104F5000FBF726FD05B20123042221462846FEF771
:104F600017FC70BD98000020940000201B480088AA
:104F700080280DDA002008E0184909880144184A01
:104F8000525C18490A54411CC8B28028F4DB23E063
:104F9000002008E0114909880144114A525C114976
:104FA0000A54411CC8B20D490988C1F1FF01814270
:104FB000F0DC0A490988C1F1FF01C8B20AE00749DB
:104FC0000988C1F1FF01411A054A525C05490A549A
:104FD000411CC8B28028F2DB70470000BC000020F2
:104FE0001AB600080005002008B50A4810231A4622
:104FF000002100900846FEF7A7FF0C2306A214210B
:105000000846FFF745F80C2304A214214820FFF7B7
:105010003FF808BDF2B000084F4646004F4E000072
:105020007CB5164810231A46002100900846FEF76A
:105030008BFF13480068FBF704FD12A30822CDE99B
:10504000000110210020FEF7D0FE11480068FBF798
:10505000F8FC10A30822CDE9000120210020FEF772
:10506000C4FE0F480068FBF7ECFC0EA30822CDE954
:10507000000130210020FEF7B8FE7CBDF2B0000830
:1050800094000020526F6C6C3A20252E326600008E
:105090009800002050697463683A252E326600003B
:1050A0009C0000205961773A2020252E32660000AE
:1050B00008B50620052300900348002102686220FD
:1050C000FEF7C0FF08BD0000B800002008B5124878
:1050D00010231A46002100900846FEF735FF0F48BE
:1050E00000680FA30822102100900020FEF77DFE2B
:1050F0000A4840680CA30822202100900020FEF7F7
:1051000074FE064880680AA308223021009000201F
:10511000FEF76BFE08BD0000F2B00008140000208E
:10512000C4EA3A2534640000D4C23A25326400004F
:10513000C8D53A253264000008B50E48C0680EA3F1
:105140000822002100900846FEF74FFE094800693A
:105150000BA30822102100900020FEF746FE054810
:10516000406909A30822202100900020FEF73DFE9F
:1051700008BD000014000020CAB13A2532640000C6
:10518000B7D63A2532640000C3EB3A2532640000FA
:1051900008B5074810231A46002100900846FEF77C
:1051A000D3FE082303A210210020FEF771FF08BDE3
:1051B000F2B00008C8D5C6DACAB1BCE4C9E8D6C3A3
:1051C000000000000EB5154810231A46002100907B
:1051D0000846FEF7B9FE1248007812490978124ACB
:1051E000127812A3CDE90021029008221421202078
:1051F000FEF7FBFD082311A228211846FEF748FF01
:10520000082310A228213020FEF742FF08230FA216
:1052100028215820FEF73CFF0EBD0000F2B0000828
:105220006D0000206C0000206B00002025303264EF
:105230003A253032643A253032640000BFAACABC35
:1052400000000000CDA3D6B900000000C7E5B3FD03
:105250000000000008B500BF19224D494D48006804
:1052600003F094FD012820D149480078012801D19C
:10527000002008BD46480078022802D10120464996
:10528000087043480078032802D100204249087082
:105290003F480078042808D100203F4908703F4962
:1052A00008703F4908703F490870002269463E482F
:1052B000006803F06BFD012834D19DF8000001283F
:1052C0000BD133480078401E3149087008460078F9
:1052D000002827DC0420087024E09DF80000022844
:1052E0000BD12B480078401C2949087008460078EB
:1052F000052817DB0120087014E09DF80000032842
:1053000010D1192003F0A0FA28B1FEF7E5F9FEF755
:1053100047FF03F08BFA002319221D491D4800683E
:1053200003F0E4FB192003F08FFA68B3FFF74AFF9C
:1053300017480078012806D002280BD0032810D087
:1053400004281CD114E010231A4600210846FEF759
:1053500065FD14E01023202228210820FEF75EFDC1
:105360000DE01023202228213020FEF757FD06E013
:105370001023202228215820FEF750FD00BF00BF37
:10538000FEF70EFF03F052FA0C2003F06BF863E710
:1053900069000020E40000206A0000206D00002069
:1053A0006C0000206B000020E000002010B503F02E
:1053B000E9FE012801D003F0CBFA10BD10B5134867
:1053C000006840F001001149086008464068104933
:1053D00008400E494860084600680E4908400B49DD
:1053E00008600846006820F480200860084640688D
:1053F00020F4FE0048604FF41F008860FFF70CF9AE
:105400004FF000600449086010BD00000010024029
:105410000000FFF8FFFFF6FE08ED00E010B50121E7
:10542000880700F027F801280FD1FDF773FAFDF780
:10543000E5FA06480078012801D100F089FCFCF764
:10544000FFFB0121880700F006F810BD6A0000206C
:10545000CA4302827047CA430282704721B1028860
:1054600042F00102028004E002884FF6FE731A4007
:105470000280704730B50246002000230024158AC0
:1054800005EA0103958905EA010413B10CB1012075
:1054900000E0002030BD1AB183890B43838102E014
:1054A00083898B438381704701894FF6F8721140DD
:1054B00001817047002202881D4B98420ED01D4B7F
:1054C00098420BD0B0F1804F08D01B4B984205D0CA
:1054D0001A4B984202D01A4B984204D14FF68F7360
:1054E0001A404B881A43174B984207D0164B9842E4
:1054F00004D04FF6FF431A40CB881A4302808B88B2
:1055000083850B8803850A4B98420BD0094B984240
:1055100008D00E4B984205D00D4B984202D00D4B4F
:10552000984201D10B7A03860123838270470000E1
:10553000002C0140003401400004004000080040FD
:10554000000C0040001000400014004000400140EA
:1055500000440140004801401FB501210846FEF704
:10556000A1FE4FF08040FFF79FFF0020ADF80A003A
:10557000ADF806006320ADF8080040F2CF20ADF88A
:10558000040000208DF80C0001A94FF08040FFF7C7
:1055900091FF01218807FFF75BFF01221146900769
:1055A000FFF779FF4FF4A060FEF730F81C208DF86C
:1055B000000001208DF8030002208DF80100012079
:1055C0008DF802006846FDF7E9FF01218807FFF723
:1055D00045FF1FBD10B5FCF767FD10BD21B18289E5
:1055E00042F40052828104E082894DF6FF731A4032
:1055F000828170471AB1838A0B43838202E0838AD7
:105600008B4383827047000010B5044620488442D3
:1056100009D101218803FEF775FE00214FF4804077
:10562000FEF770FE32E01B48844209D10121480494
:10563000FEF748FE00214FF40030FEF743FE25E060
:105640001548844209D101218804FEF73BFE002160
:105650004FF48020FEF736FE18E01048844209D14E
:105660000121C804FEF72EFE00214FF40020FEF7B2
:1056700029FE0BE00A48844208D101210805FEF703
:1056800021FE00214FF48010FEF71CFE10BD00002B
:10569000003801400044004000480040004C0040F9
:1056A0000050004002460020B1F5007F00D100BF4D
:1056B00013880B400BB1012000E00020704770B54B
:1056C0000246002400230025002040F66A16B1425D
:1056D00000D100BFC1F3421501F01F03012606FAF5
:1056E00003F3012D02D19689334006E0022D02D149
:1056F000168A334001E0968A33400C12012606FADE
:1057000004F41688344013B10CB1012000E00020ED
:1057100070BDF0B50346002400260025002040F6A9
:105720006A17B94200D100BF1846C1F3421401F014
:105730001F06012707FA06F5012C01D10C3004E001
:10574000022C01D1103000E014301AB107682F4349
:10575000076002E00768AF430760F0BD2DE9F0473E
:1057600086B005460E460024A24600BFA14600278B
:10577000B08900B100BF2F462C8A4CF6FF70044060
:10578000F08804432C82AC894EF6F3100440B088B4
:1057900031890843718908430443AC81AC8A4FF6D0
:1057A000FF400440B0890443AC8201A8FEF7BAFD73
:1057B0001F48874202D1DDF810A001E0DDF80CA0FF
:1057C000A88900F4004040B10AEBCA0000EB0A10BF
:1057D00031684900B0FBF1F807E00AEBCA0000EBC2
:1057E0000A1031688900B0FBF1F86420B8FBF0F0D2
:1057F00004012009642101FB1089A88900F40040FC
:1058000040B1322000EBC900B0FBF1F000F007001E
:10581000044308E0322000EB09106421B0FBF1F0F2
:1058200000F00F0004432C8106B0BDE8F0870000B3
:1058300000380140C1F308028280704700BFFEE7D4
:1058400010B501244FF4FA620DA10EA0FCF702FC82
:10585000044040F6B8320AA10EA0FCF7FBFB04405E
:105860004FF4FA6206A116A0FCF7F4FB04404FF4D3
:10587000FA6203A119A0FCF7EDFB0440204610BD1D
:105880004F4B000041542B43574D4F44453D320D83
:105890000A00000041542B43575341503D224553C9
:1058A0005033325F736F66744150222C2231323391
:1058B00034353637383930222C352C330D0A000078
:1058C00041542B43495041503D223139322E31361B
:1058D000382E382E31220D0A0000000041542B438F
:1058E000495041503F0D0A0070B505460020184947
:1058F000087018490870FCF73DFB17A000F072FB18
:105900004FF47A721DA11EA0FCF7A4FB10B91EA0D3
:1059100000F068FB41F2883224A126A0FCF79AFB34
:105920004FF47A7215A126A0FCF794FB022D03D147
:10593000FFF786FF044602E000F054F804460CB17D
:1059400021A000E021A0014622A000F04BFB70BD89
:10595000DA000020DB00002045535033322055533D
:105960004152543220444D412B49444C4520696EEC
:10597000697420646F6E650D0A0000004F4B0000D3
:1059800041540D0A00000000455350333220415469
:10599000206E6F20726573706F6E73652C20747249
:1059A000792072657365740D0A0000007265616488
:1059B0007900000041542B5253540D0A000000009E
:1059C000415445300D0A00006F6B00006661696C40
:1059D00065640000574946495F496E697420257324
:1059E0000D0A000010B598B001244FF4FA620EA120
:1059F0000EA0FCF72FFB044010A313A213A16846CE
:105A000000F01AFB44F6206207A16846FCF722FB6F
:105A100004404FF4FA6204A112A0FCF71BFB0440FF
:105A2000204618B010BD00004F4B000041542B43DE
:105A3000574D4F44453D310D0A000000383736358B
:105A400034333231000000006373770041542B433C
:105A5000574A41503D222573222C222573220D0ADC
:105A60000000000041542B4349505354413F0D0A5C
:105A70000000000001460548007828B111B1044833
:105A800000780870012070470020FCE7DB00002050
:105A9000DA00002000B5ADF5017D6A4640F2FF1145
:105AA00001A8FCF789FA60B1002001A9BDF8002027
:105AB000885405A000F096FABDF8001001A800F087
:105AC000A1F80DF5017D00BD4553503332205258E9
:105AD0003A2025730D0A000070B58AB006460D46BF
