:020000040800F2
:10000000E83200209D010008BD290008451B0008BA
:100010002D24000879130008CD4A000800000000D4
:1000200000000000000000000000000005010008C2
:10003000B5130008000000004901000891470008BE
:10004000B7010008B7010008B7010008B7010008B0
:10005000B7010008B7010008B7010008B7010008A0
:10006000B7010008B7010008B7010008B701000890
:10007000B7010008B7010008B7010008B701000880
:10008000B7010008B7010008B7010008B701000870
:10009000B7010008B7010008B7010008B701000860
:1000A000B7010008B7010008B7010008B701000850
:1000B00001480008B7010008B7010008B7010008AF
:1000C000B7010008B7010008B7010008B701000830
:1000D000B7010008B7010008B7010008B701000820
:1000E000B7010008B7010008B7010008DFF810D019
:1000F00000F0D4FD00480047055E0008AFF3008023
:10010000E8320020224B19680868B0E8F00F80F34D
:100110000988BFF36F8F4FF0000080F311884EF015
:100120000D0E70470000000006480068006880F36C
:10013000088862B661B6BFF34F8FBFF36F8F00DFE1
:1001400000BF00BF08ED00E0EFF30980BFF36F8F41
:100150000F4B1A6820E9F00F106008B54FF05000FF
:1001600080F31188BFF34F8FBFF36F8F07F038F81C
:100170004FF0000080F31188BDE808401968086856
:10018000B0E8F00F80F30988BFF36F8F704700BFAE
:100190000C010020EFF305807047000006488047FF
:1001A00006480047FEE7FEE7FEE7FEE7FEE7FEE75C
:1001B000FEE7FEE7FEE7FEE7A1470008ED000008C6
:1001C0000649074A0868504343F239021044086060
:1001D0004008704701490860704700006C0100202A
:1001E0006D4EC64138B5D0E90221491E01EB4101EF
:1001F00002EBC1014268C1EB011102EB810102680F
:10020000C1EB011102EB8102D0E9043101EB4101A4
:1002100003EB81013023A1F5527191FBF3F4174DEB
:100220006C4302EBC41291FBF3F403FB1411009234
:100230001A2902DB124B1A4400920C2291FBF2F3B2
:10024000104C6343009C04EBC313009391FBF2F347
:1002500002FB13110C4A08E0491E40F2A324535C30
:100260006343009C04EBC31300930029F4DC0146B4
:10027000684600F0F1FB009838BD00003F0C0F000D
:100280008051010067C2030056A3000840EA010341
:100290009B0703D009E008C9121F08C0042AFAD23C
:1002A00003E011F8013B00F8013B521EF9D2704700
:1002B000D2B201E000F8012B491EFBD270470022A8
:1002C000F6E710B513460A4604461946FFF7F0FF55
:1002D000204610BD10B5002200E0521C835C8C5CEF
:1002E000A34201D1002BF8D1D8B2E1B2401A10BD1F
:1002F000F0B480EA0102D40F4200B2EB410F02D207
:100300000246084611464A0042D0C30DDDB2C1F391
:10031000C752AD1A202D35DAC1F3160141F400029F
:1003200004B15242C5F1200602FA06F12A411044F6
:10033000B3EBD05F23D0C4B1012DA0EBC35009DCD7
:10034000F0BC4FF0004202EAC352DBB200F50000FD
:1003500000F0D1BB400000F1807000EBC350A0F171
:10036000807040EAD170490009E0490841EAC07153
:10037000A0EBC35000F50000400800EBC350F0BCF8
:1003800000F0B0BB6142012202EB4101001BF6E725
:10039000F0BC704781F00041AAE780F00040A7E779
:1003A00080EA010210B502F00043400022D04A006A
:1003B0001FD0010E01EB1261C0F35600C2F35602CA
:1003C00040F4000042F40002A0FB022000047F3948
:1003D000140400D0401C50EA124001D44000491ED1
:1003E000C2B20C0604EBD010401C4008802A02D098
:1003F00003E0002010BD20F00100002900DA0020F9
:10040000184310BD30B480EA010202F0004530F01C
:10041000004221F0004013D090B1C30DD40DC2F3BF
:100420001601C0F31600E41A41F4000140F4000282
:100430007D34914201D3641C00E04900002C02DAB3
:1004400030BC002070474FF400000023914201D3DC
:10045000891A034340084FEA4101F7D151B1914253
:1004600002D14FF0004105E002D24FF0010101E05E
:100470006FF0010103EBC450284430BC00F032BBE4
:100480002DE9FE4F804681EA0300C00F0C46009024
:1004900021F0004123F00045B8EB0200A94105D24C
:1004A0004046214690461C460B46024623F000403B
:1004B000104347D0270DC7F30A00C3F30A51029037
:1004C000401A019040286BDAC3F3130040F4801BFC
:1004D0000098924620B10023D2EB030A63EB0B0B8A
:1004E00001985946C0F14002504600F07EFA064697
:1004F0000D4650465946019A00F096FA10EB080056
:100500006141002487EA115284EAE7731A4340D01C
:10051000009A62B3019A012A4FEA075215DC001BC8
:1005200061EB02014FF0004202EA0752CDE90042BE
:10053000001C41F5801132462B4600F048FB03B009
:10054000BDE8F08F40462146F9E7001B61EB020150
:10055000001C41F5801300185B412018A2F500171C
:1005600047EB030140EAD570B6196D4111E06D0803
:100570004FEA360645EAC0754FEA0752001B61EBA9
:100580000201001C41F5801149084FEA30000019B2
:10059000514132462B4603B0BDE8F04F00F008BB96
:1005A0000098012240000023D0EB020263EBE073CD
:1005B000009821464FEAE074B8EB000061EB0401BB
:1005C000E9E783F000435BE781F0004158E72DE95C
:1005D000FE4F81EA030404F0004421F0004100943E
:1005E0004FF0000B23F0004350EA01045ED052EAC2
:1005F00003045BD0C3F30A54C1F30A552C44A4F29C
:10060000F3340194A0FB0254C1F3130141F48011AF
:10061000C3F3130343F4801301FB024400FB034EB6
:10062000840A970A44EA815447EA8357A4FB07687F
:1006300002958D0A05FB07854FEA932C04FB0C54A9
:100640002705029D4FEA065847EA1637B5EB08051D
:100650006EEB070C870E920E47EA811742EA83126F
:10066000A7FB0201B6EB0B0164EB00042B0D43EA80
:100670000C335E1844EB1C50DA465146E7FB02018E
:10068000C5F313044FEA0B3343EA14534FEA043221
:10069000019C43EA0603A4F10C040294009CCDE9FA
:1006A00000B400F094FA03B0BDE8F08F00200146DA
:1006B000F9E72DE9F04D81EA030404F0004B21F045
:1006C000004514464FF0000A23F0004150EA0502AD
:1006D00020D054EA01021DD0C5F30A570246C5F3E3
:1006E0001303C1F31300C1F30A5640F4801543F419
:1006F0008013A7EB0608101BD64608F2FD3873EBF3
:10070000050002D308F1010801E092185B41B8F13D
:10071000000F03DA00200146BDE8F08D00204FF401
:100720008011064684460EE0171B73EB050705D3C0
:10073000121B63EB050306434CEA010C49084FEA20
:10074000300092185B4150EA0107EDD152EA0300F4
:1007500012D082EA040083EA0501084305D0101B89
:10076000AB4106D20122002306E000224FF00043F5
:1007700002E06FF0010253101AEB06004CEB085137
:1007800010EB0A0041EB0B01BDE8F04D00F010BA90
:10079000C10F80EAE0700844CA079623002100F0E8
:1007A000AAB996230022114600F0A5B90EB5C10FD3
:1007B00080EAE0700844CA07002140F233438DE824
:1007C0000E000A460B4600F002FA03B000BD0EB55B
:1007D00040F2334102910021CDE900110A460B4657
:1007E00000F0F5F903B000BD00F0004220F0004039
:1007F000C10DC0F3160040F400007F2901DA00208B
:100800007047962903DCC1F19601C84001E0963992
:100810008840002AF4D04042704770B5C1F30A52B4
:1008200001F000450024C1F3130140F2FF3341F40D
:1008300080119A4201DA002070BD40F233439A429F
:10084000A2F2334203DC524200F0DEF800E09040B6
:100850002C43F1D0404270BDC1F30A5210B5C1F330
:10086000130140F2FF3341F480119A4201DA002073
:1008700010BD40F233439A42A2F2334203DC5242AB
:1008800000F0C2F810BD904010BD00F0004230F002
:1008900000400AD0C10D01F56071C0F3160042EAB4
:1008A0000151C208400711437047002001467047BC
:1008B00030B5041E71F1000404DB4FF000444042E7
:1008C00064EB0101141E73F1000405DB1C464FF0BC
:1008D0000043524263EB04038B4208BF824230BDA7
:1008E00030B5041E71F1000404DB4FF000444042B7
:1008F00064EB0101141E73F1000405DB1C464FF08C
:100900000043524263EB0403994208BF904230BD5A
:1009100001F0004330B421F0004150EA010206D05A
:100920000A0DA2F56072C1F31301002A02DC30BC8B
:1009300000207047440F44EAC104C100E01830BCF5
:1009400000EBC25000F0CEB8002801DBC0F100403F
:10095000002901DBC1F100418142704730B50B46EF
:10096000014600202022012409E021FA02F59D42DF
:1009700005D303FA02F5491B04FA02F52844151EB3
:10098000A2F10102F1DC30BD2DE9F05F0546002047
:1009900092469B4688460646814640241BE02846F0
:1009A00041464746224600F02FF853465A46C01AA1
:1009B000914110D311461846224600F016F82D1A20
:1009C00067EB01084F4622460120002100F00DF898
:1009D00017EB00094E41201EA4F10104DFDC48465C
:1009E00031462A464346BDE8F09F202A04DB203AE0
:1009F00000FA02F1002070479140C2F1200320FA72
:100A000003F3194390407047202A04DB203A21FA6F
:100A100002F00021704721FA02F3D040C2F1200217
:100A20009140084319467047202A06DBCB17203A2D
:100A300041FA02F043EAE07306E041FA02F3D040E3
:100A4000C2F120029140084319467047014900F065
:100A500003B80000B82E002010B500683C22B0FB9F
:100A6000F2F302FB1303B0FBF2F00B60B0FBF2F306
:100A700002FB1303B0FBF2F018224B60B0FBF2F361
:100A800002FB1303B0FBF2F0021D8B600723B2FBE5
:100A9000F3F403FB1422800040F2B55300F66C30EF
:100AA0008A61B0FBF3F2B0FBF3F403FB14004432B1
:100AB00080084A61C8613B2802D3920700D0401CDD
:100AC0000022074C13460A61E25C824203D8801A76
:100AD0005B1C0B61F8E7401CC860084610BD0000B5
:100AE00088A400080029A8BF7047401C490008BF1F
:100AF00020F00100704710B4B0FA80FC00FA0CF04E
:100B000050EA010404BF10BC704749B1CCF1200485
:100B100021FA04F411FA0CF118BF01212143084312
:100B2000A3EB0C01CB1D4FEA00614FEA102042BF3E
:100B3000002010BC704700EBC35010440029A4BF34
:100B400010BC7047401C490008BF20F0010010BCD9
:100B50007047F0B4002802DCF0BC00207047C0F3FE
:100B6000C751C0F3160040F40000CA0701D140008D
:100B7000491E3F2202EB6105002211464FF4000698
:100B800026FA01F31344D418844201D8001B1A46F4
:100B90004000491C1729F3DD5100814202D24FF079
:100BA000FF3100E0002102EBC550F0BCFFF79ABF17
:100BB00010B5141E73F1000408DA401C41F1000165
:100BC00092185B411A4301D120F0010010BD2DE9BC
:100BD000F04D92469B4611B1B1FA81F202E0B0FAB3
:100BE00080F220329046FFF700FF04460F4640EAAD
:100BF0000A0041EA0B0153465A46084313D01146F6
:100C000053EA010019D0C8F140025046FFF7FCFE3C
:100C100005460E46504659464246FFF7E6FE084353
:100C200005D0012004E020463946BDE8F08D0020C3
:100C3000054346EAE0762C4337430A986305E40A05
:100C4000A0EB08000022FD0A44EA47540A3002D50E
:100C500000200146E9E7010510196941DDE9084571
:100C600000196941BDE8F04DA2E7C1F30A52C1F392
:100C7000130140F2FF3341F480119A4202DA00205E
:100C80000146704740F233439A42A2F2334202DCFB
:100C90005242FFF7B9BEFFF7A8BE0000064C074D51
:100CA00006E0E06840F0010394E80700984710343C
:100CB000AC42F6D3FFF71EFAD0A40008F0A4000857
:100CC000420005D0C0F3C7525242914201DC0020DD
:100CD000704700EBC150704770B521F000430343EB
:100CE0000CD0C1F30A550024D5EB040564EB0403D2
:100CF000D617AD1AB34102DB0020014670BD2018A3
:100D000041EB025170BD70B58C1810F8015B15F005
:100D1000070301D110F8013B2A1106D110F8012B6D
:100D200003E010F8016B01F8016B5B1EF9D12B0792
:100D300005D40023521E0DD401F8013BFAE710F848
:100D4000013BCB1A921C03E013F8015B01F8015B35
:100D5000521EF9D5A142D8D3002070BD21B18268BE
:100D600042F00102826003E0826822F001028260A8
:100D70007047014600208A6802F004020AB101208F
:100D800000E0002070470146C86C80B27047014601
:100D900000208A6802F008020AB1012000E0002069
:100DA0007047000030B502460020002350680F4C09
:100DB00020400D790C6844EA052420435060906877
:100DC0000B4C2040D1E902542C434D7944EA4504B0
:100DD00020439060D06A20F470000C7C641EE4B262
:100DE000234340EA0350D06230BD0000FFFEF0FF15
:100DF000FDF7F1FFF0B504460D4600200021092D56
:100E000011DDE068A5F10A0606EB4607072606FA9B
:100E100007F18843A5F10A0606EB460603FA06F138
:100E20000843E0600CE0206905EB4507072606FA59
:100E300007F1884305EB450603FA06F108432061F4
:100E4000072A0FDA606B561E06EB86071F2606FA86
:100E500007F18843561E06EB860605FA06F108439D
:100E6000606322E00D2A0FDA206BD61F06EB86079F
:100E70001F2606FA07F18843D61F06EB860605FAF9
:100E800006F10843206310E0E06AA2F10D0606EBCC
:100E900086071F2606FA07F18843A2F10D0606EB26
:100EA000860605FA06F10843E062F0BD816841F06C
:100EB00008018160704721B1826842F4A00282601B
:100EC00003E0826822F4A00282607047816841F0EA
:100ED000040181607047000010B50248FFF753FF1E
:100EE00010BD00000024014000B587B00121480278
:100EF00002F0FAFB0121042002F0F6FB4FF400405F
:100F000002F0C6FB00208DF81B000120ADF8180090
:100F100003208DF81A0006A91B4800F0C9FC052320
:100F2000012200211948FFF765FF0020019004907D
:100F30004FF46020039001208DF8090000208DF807
:100F4000080001208DF8140001A91048FFF72AFFBE
:100F500001210E48FFF702FF0C48FFF7A7FF00BF73
:100F60000A48FFF714FF0128FAD00848FFF7AEFF40
:100F700000BF0648FFF7FDFE0128FAD00121034813
:100F8000FFF799FF07B000BD0008014000240140B1
:100F900070B506460D4606B10DB9012070BD0021A1
:100FA0004FF4003000F0B4F908B10120F6E7012158
:100FB000204800F0C9FD01211E4800F00FFE1E4828
:100FC00000F090F918B100F063F90120E6E7012282
:100FD0007021184800F0B2FE1748401C00F082F95A
:100FE00018B100F055F90120D8E700241AE0681E76
:100FF000C0B2A04207D100210E4800F0A5FD01219A
:101000000C4800F0F7FD01210C4800F081F918B1FF
:1010100000F03EF90120C1E7064800F08BFE305594
:10102000601CC4B2AC42E2DB0121024800F08CFD3E
:101030000020B3E70058004001000300400000100A
:1010400070B505460E4600214FF4003000F060F9FF
:1010500008B1012070BD0121174800F0BFFD1748FD
:1010600000F040F918B100F013F90120F2E7002276
:101070007021114800F062FE114800F033F918B1F8
:1010800000F006F90120E5E700240EE0295D0A489A
:1010900000F05DFE0A48801C00F024F918B100F051
:1010A000F7F80120D6E7601CC4B2B442EEDB00F0D2
:1010B000EFF80020CEE700000058004001000300D8
:1010C0008200070000B587B0002001902EA00068C4
:1010D00000900121082002F007FB0121880502F0A1
:1010E000E3FA1C208DF81B004FF44060ADF81800A7
:1010F00003208DF81A0006A9244800F0D9FB2448E3
:1011000000F050FD0121224800F023FE002120487C
:1011100000F01FFE0020ADF80C004BF6FF70ADF89C
:101120000E000020ADF810004FF48060ADF8120002
:101130000001ADF814001748029002A9144800F00D
:1011400083FD0121124800F020FD282000F033F932
:10115000012101A8FFF71CFF60B99DF8040000F011
:10116000080070B903216846FFF76AFF0A2000F003
:1011700022F906E003216846FFF762FF0A2000F02B
:101180001AF907B000BD0000BE080000000C0140C5
:1011900000580040A086010008B500BF0022694643
:1011A0001548006806F02AFB01280FD19DF80000C1
:1011B00003280BD1192006F07FF828B101F09EFC1E
:1011C00002F000FA06F06AF8002008BD192006F0C7
:1011D00073F868B101F092FC02F0B6FD10231A46D4
:1011E0000021084602F02CF802F0ECF906F056F85F
:1011F000322005F099FED1E7DC000020FEB5044660
:101200000D4622A00068009004B10DB90120FEBD7A
:1012100003216846FFF714FF08B10120F7E75020CB
:1012200000F0C9F8062101A8FFF7B2FE08B10120BD
:10123000EDE79DF8040000F0800008B10120E6E72A
:101240009DF8050000039DF8061040EA01109DF886
:10125000071040EA11174FF47A707843000D288088
:101260009DF807000007000B9DF8081040EA0120D8
:101270009DF8091040EA01074FF4FA6078434FF4F3
:10128000FA71C1EB105626800020C0E7AC33000095
:1012900010B50121034800F0ADFC0121014800F028
:1012A00053FC10BD005800401CB5694601A8FFF76B
:1012B000A5FF20B100200849087001201CBDBDF920
:1012C000040006490880BDF8000005490880012097
:1012D000014908700020F1E7D4000020D000002070
:1012E000D200002070B50446074D05E0281EA5F188
:1012F000010501D1012070BD2146044800F030FCF9
:101300000128F3D10020F6E7A08601000058004034
:1013100070B504460D46084E05E0301EA6F10106E4
:1013200001D1012070BD2146044800F06FFCA842A5
:10133000F3D10020F6E70000A0860100005800402D
:1013400008B501460020009003480090009808442A
:1013500000900098008808BD006C004008B500228D
:101360000092044A0092009A02440092009A11608E
:1013700008BD0000006C004000BFFEE770B50446E9
:101380000D46012D07D10A4850F82400401C084999
:1013900041F8240006E0064850F82400401E0449A5
:1013A00041F82400204601F04DFB01F0E1FA70BD48
:1013B00014000020704770B5044606F01BFC01289D
:1013C0000CD0FA2060434FF47A71B0FBF1F50DB9FF
:1013D00004B10125284605F0A7FD70BD03E04FF4D8
:1013E0007A7000F012F8201EA4F10104F7D100BFBA
:1013F000F3E710B5044603E04FF47A70FFF7DBFF24
:10140000201EA4F10104F7D110BD08B509E00021A8
:10141000009103E000BF0099491C0091009909293F
:10142000F8D3011EA0F10100F1D108BD38B500BF0D
:10143000002269461648006806F0E0F9012805D147
:101440009DF80000012801D112490870192005F00B
:1014500033FF78B101F052FB03F01CF802F078FF83
:1014600002F0FCFC02F022FE02F032FE02F0AAF8CA
:1014700005F014FF0849094804F08AFC0446012CD1
:1014800001D1002038BD0C2005F04EFDD0E7000052
:10149000DC000020C5000020C0000020C9000020A2
:1014A0000020044908700449087004490880044970
:1014B00008607047C8000020BF000020BC0000206A
:1014C000B80000202F480078401C2E4908702E4894
:1014D0000078401C2C4908702C480078401C2B498F
:1014E000087028480078642807DB00202549087028
:1014F00027480068401C26490860234800781428C3
:101500001ADB00202049087022480088401C21492D
:10151000088021480078401C1F4908701D48008839
:10152000FF2802DD00201B4908801B480078902816
:1015300002DB0020184908701448007832280DDBBF
:1015400000201249087015480078401C13490870A3
:1015500008460078C82801DB002008701048007891
:1015600001280DD10F480088401C0E49088008460C
:101570000088B0F57A7F03DB0020088008490870F6
:1015800070470000CD000020CE000020CF000020DA
:10159000B8000020BC000020BF000020C4000020D4
:1015A000C5000020C600002010B50446192005F033
:1015B00083FE70B301F0A2FA02F07AFF012C06D08C
:1015C000022C0BD0032C10D0042C1CD114E01023BF
:1015D0001A460021084601F033FE15E010231A4692
:1015E0001946002001F02CFE0EE010231A4620219F
:1015F000002001F025FE07E010231A4630210020CC
:1016000001F01EFE00E000BF00BF01F0DBFF05F0AF
:1016100045FE10BD10B50446192005F04DFE28B357
:1016200001F06CFA02F044FF022C04D0032C09D024
:10163000042C15D10DE0102320221946182001F0AA
:10164000FFFD0EE010231A462021182001F0F8FDBE
:1016500007E010231A463021182001F0F1FD00E0C8
:1016600000BF00BF01F0AEFF05F018FE10BD10B5C1
:101670000446192005F020FE28B301F03FFA02F0DD
:101680004DFF052C04D0062C09D0072C15D10DE0F8
:1016900010231A460021084601F0D2FD0EE0102367
:1016A0001A461946002001F0CBFD07E010231A4628
:1016B0002021002001F0C4FD00E000BF00BF01F0C8
:1016C00081FF05F0EBFD10BD10B50446192005F0B3
:1016D000F3FD28B301F012FA02F020FF052C04D02C
:1016E000062C09D0072C15D10DE010231A46002135
:1016F000182001F0A5FD0EE010231A461946182007
:1017000001F09EFD07E010231A462021182001F069
:1017100097FD00E000BF00BF01F054FF05F0BEFDE3
:1017200010BD10B524E000F037F858B1192005F0CD
:10173000C3FD28B101F0E2F901F044FF05F0AEFD70
:10174000002010BD192005F0B7FD70B102F03CFD7E
:1017500038B101F0D3F901F035FF05F09FFD00200D
:10176000EFE701F02FFF05F099FD052005F0DCFB08
:10177000D9E770B5044600250AE000F00DF808B17D
:10178000012070BD052005F0CFFB05F1140085B2E6
:10179000A542F2DB0020F4E708B5002269460848BC
:1017A000006806F02BF8012807D19DF800000328F7
:1017B00001D1012008BD0020FCE70020FAE700006D
:1017C000DC00002008B500BF0022694635480068EB
:1017D00006F014F801283DD19DF8000001280BD136
:1017E00031480068401E30490860084600680028FB
:1017F00030DC022008602DE09DF8000002280BD1AB
:1018000029480068401C28490860084600680328E9
:1018100020DB012008601DE09DF8000003280CD1AA
:10182000192005F049FD28B101F068F901F0CAFE60
:1018300005F034FD1C48006808BD9DF80000042830
:1018400008D1C102194800F0C7F84FF48051174879
:1018500000F0C4F8192005F02FFDF8B11248006817
:10186000012802D0022816D10AE002F0D7FB10238B
:1018700020223021002001F0E3FC01F0A3FE0AE069
:1018800002F0CCFB102320223021602001F0D8FC94
:1018900001F098FE00BF00BF05F000FD0C2005F030
:1018A00043FB91E7DC0000205C000020000C0140BD
:1018B0002DE9F041024600250026002000230024E7
:1018C000002791F803C00CF00F0591F803C00CF04D
:1018D000100CBCF1000F03D091F802C04CEA0505D2
:1018E00091F800C0BCF1000F31D0146800202BE04B
:1018F0004FF0010C0CFA00F3B1F800C00CEA03063B
:101900009E4220D183004FF00F0C0CFA03F7BC432A
:1019100005FA03FC4CEA040491F803C0BCF1280F5B
:1019200006D14FF0010C0CFA00FCC2F814C00AE01A
:1019300091F803C0BCF1480F05D14FF0010C0CFA2F
:1019400000FCC2F810C0401C0828D1D31460B1F8C4
:1019500000C0BCF1FF0F34DD546800202EE000F120
:10196000080C4FF0010808FA0CF3B1F800C00CEABB
:1019700003069E4221D183004FF00F0C0CFA03F7AF
:10198000BC4305FA03FC4CEA040491F803C0BCF123
:10199000280F05D100F1080C08FA0CF8C2F81480E1
:1019A00091F803C0BCF1480F07D100F1080C4FF0CB
:1019B000010808FA0CF8C2F81080401C0828CED3A1
:1019C0005460BDE8F0810246002093680B400BB1E3
:1019D000012000E0002070474161704701617047BD
:1019E0000AB1016100E041617047000008B500BF25
:1019F00019223B493B48006805F000FF01280DD142
:101A000037480078012801D1002008BD344800780B
:101A1000022803D1FFF744FDFFF708FD00226946C5
:101A20003148006805F0EAFE012834D19DF8000035
:101A300001280BD12A480078401E29490870084621
:101A40000078002827DC0220087024E09DF80000C0
:101A500002280BD122480078401C21490870084612
:101A60000078032817DB0120087014E09DF80000BF
:101A7000032810D1192005F01FFC28B101F03EF811
:101A800001F0A0FD05F00AFC0023192214491548B5
:101A9000006805F063FD192005F00EFCD8B102F0D6
:101AA00019FC0F480078012802D002280ED106E068
:101AB00010231A460021084601F0C2FB06E010235D
:101AC00050221946002001F0BBFB00BF00BF01F00F
:101AD00079FD05F0E3FB0C2005F026FA88E700000D
:101AE000A4000020E0000020DC00002008B526E073
:101AF000002269461248006805F080FE01280FD1D7
:101B00009DF8000003280BD1192005F0D5FB28B162
:101B100000F0F4FF01F056FD05F0C0FB002008BD09
:101B2000192005F0C9FB38B100F0E8FF02F0EAFB2C
:101B300001F048FD05F0B2FB062005F0F5F9D7E706
:101B4000DC00002000BFFEE721B1028842F4806281
:101B5000028004E002884FF6FF331A40028070478B
:101B600070B502460024002500230020958A138BBF
:101B70001B0445EA030626F07F4404EA01068E4270
:101B800001D1012000E0002070BD21B1028842F0A7
:101B90000102028004E002884FF6FE731A400280C0
:101BA0007047000010B504460B48844209D101215A
:101BB000480501F089FD00214FF4001001F084FD7B
:101BC00008E00121880501F07FFD00214FF480002D
:101BD00001F07AFD10BD00000054004021B10288E0
:101BE00042F48072028004E002884FF6FF631A40DC
:101BF0000280704721B1028842F40072028004E042
:101C000002884FF6FF531A40028070470CB5024617
:101C1000002000230193009300920B0F019321F009
:101C20007F41019B1BB1009B1433009303E0090C1F
:101C3000009B18330093009B1B680B400BB10120E5
:101C400000E000200CBD00002DE9F04385B0044603
:101C50000D460026B1460427DFF8CC80A6884FF653
:101C6000C0700640684601F04FFDDDF808802F483F
:101C7000B8FBF0F01FFA80F946EA0906A680208832
:101C80004FF6FE71084020800026294928688842C6
:101C90000CD828684000B8FBF0F087B2042F00DAB7
:101CA00004273E4309F10100208427E0E8884BF631
:101CB000FF71884206D1286800EB4000B8FBF0F0C5
:101CC00087B209E0286800EBC00101EB0010B8FB07
:101CD000F0F087B247F48047C7F30B0008B947F02C
:101CE000010747F4004006434FF4967009FB00F0EB
:101CF0004FF47A7190FBF1F0401C2084A683208879
:101D000040F00100208026884FF6F5300640A88874
:101D10006989084306432680A889298908432081C8
:101D200005B0BDE8F083000000127A0040420F00C9
:101D3000A08601000146088AC0B2704712B141F086
:101D4000010102E04FF6FE731940018270470182E3
:101D5000704721B1028842F40042028003E0028809
:101D6000C2F30E020280704710B510211048FFF731
:101D70002AFEC8B90F4800884EF66021884204DA6E
:101D80000C480088401C0B4908800A480088B0F5C0
:101D90007A7F0CDB0848007848B9042007490870AE
:101DA00001200549087002E000200249088010BDAA
:101DB00000080140AE000020B0000020AC00002070
:101DC00072B6034908780021014A117062B6704763
:101DD000AC00002010B502210A48FFF7F4FD08B955
:101DE000012010BD40210848FFF7EDFD08B9022091
:101DF000F7E710210448FFF7E6FD08B90320F0E7F4
:101E00000020EEE7000C01400008014008B5012168
:101E1000082001F069FC0121042001F065FC482044
:101E20008DF803000220ADF8000003208DF80200B9
:101E300069460548FFF73CFD5020ADF800006946B3
:101E40000248FFF735FD08BD000C014000080140C5
:101E500010B514480078401C1249087008460078F4
:101E600014281EDB002008700F4800780F49087006
:101E7000FFF7B0FF0C4908700C48007888B108469D
:101E8000007870B909480078032806D1084800781E
:101E900018B100200649087003E00448007805499D
:101EA000087010BDB1000020B2000020B300002077
:101EB000B0000020AC00002010B54FF400410248F3
:101EC000FFF78CFD10BD0000000C014010B54FF471
:101ED00000410248FFF780FD10BD0000000C0140EA
:101EE00008B50121082001F0FFFB10208DF8030048
:101EF0004FF43040ADF8000003208DF80200694631
:101F00000948FFF7D5FC4FF400410748FFF766FD8D
:101F10004FF480510448FFF75FFD4FF40051024831
:101F2000FFF75CFD08BD0000000C014008B500BFD4
:101F3000192241494148006805F060FC012811D18F
:101F40003D480078012801D1002008BD3A480078BA
:101F5000022801D1FFF7B0FF37480078032801D1EC
:101F6000FFF7B4FF002269463548006805F046FCDB
:101F7000012834D19DF8000001280BD12E480078AB
:101F8000401E2D49087008460078002827DC0320F1
:101F9000087024E09DF8000002280BD12648007844
:101FA000401C2549087008460078042817DB0120EA
:101FB000087014E09DF80000032810D1192005F0E6
:101FC0007BF928B100F09AFD01F0FCFA05F066F902
:101FD0000023192218491948006805F0BFFA192092
:101FE00005F06AF920B302F0F1F9134800780128EE
:101FF00004D0022809D0032815D10DE010231A4679
:102000000021084601F01CF90DE0182324221421B8
:10201000084601F015F906E018231A461421482055
:1020200001F00EF900BF00BF01F0CCFA05F036F95F
:102030000C2004F079FF7BE770000020E000002016
:10204000DC0000202DE9FE4F78487949794B7A4A27
:10205000CDE9001079497A4800F010F905F0DAFD71
:1020600004467848006818B976480460BDE8FE8FD9
:1020700074490968611A8800FEF793FB06467249A5
:10208000FEF7C0F905466F4804606A48B0F90000E1
:10209000FEF77EFB80466D49FEF7B4F907462946F8
:1020A000FEF77EF906466A4801683046FEF720F9D9
:1020B000684908605E48B0F90000FEF769FB804699
:1020C0006249FEF79FF907462946FEF769F9064679
:1020D000614801683046FEF70BF9604908605348D3
:1020E000B0F90000FEF754FB80465849FEF78AF924
:1020F00007462946FEF754F9064659480168304616
:10210000FEF7F6F8574908604B48B0F90000FEF7B3
:102110003FFB80464948B0F90000FEF739FB814695
:10212000414603F0DBFC07464F49FEF739F9064606
:102130004E49FEF767F94E4908603F48B0F9000084
:10214000FEF726FB01903C48B0F90000FEF720FBAB
:1021500000900199FEF724F983463848B0F9000051
:10216000FEF716FB01903548B0F90000FEF710FBB2
:1021700000900199FEF714F959460290FEF7B8F85D
:10218000824604F091FC80462D48B0F90000FEF72D
:10219000FFFA80F000494146484603F09FFC07469D
:1021A0003149FEF7FDF806463049FEF72BF9314973
:1021B0000860314801684FF07E50FEF7EBF880462A
:1021C0002B4801684046FEF7EBF8064621480168B7
:1021D00029480068FEF7E4F807463146FEF788F81C
:1021E0001B490860244801684FF07E50FEF7D2F882
:1021F0008046204801684046FEF7D2F80646174858
:1022000001681D480068FEF7CBF807463146FEF727
:102210006FF8114908601348016817480068FEF715
:10222000BFF80F49086000BF20E700007C000020D5
:102230007A00002078000020760000207400002042
:1022400072000020A800002000007A44333383414C
:102250009400002088000020980000208C000020BE
:102260009C0000209000002000003443DA0F494019
:102270008000002084000020A00000202DE9F05FF5
:1022800006460F4690469946DDE90AAB3B2000F032
:1022900067F804463C2000F063F8054645EA042050
:1022A00000B230803D2000F05BF804463E2000F094
:1022B00057F8054645EA042000B238803F2000F078
:1022C0004FF80446402000F04BF8054645EA04204C
:1022D00000B2A8F80000432000F042F80446442071
:1022E00000F03EF8054645EA042000B2A9F80000D7
:1022F000452000F035F80446462000F031F8054648
:1023000045EA042000B2AAF80000472000F028F8AF
:102310000446482000F024F8054645EA042000B2AF
:10232000ABF80000BDE8F09F10B500F019FA0121EC
:102330006B2000F034F800216C2000F030F804210C
:10234000192000F02CF806211A2000F028F8182196
:102350001B2000F024F818211C2000F020F810BDEC
:1023600070B5044600F070FAD02000F058FA00F082
:1023700021FA204600F053FA00F01CFA00F064FA4B
:10238000D12000F04CFA00F015FA00F022FA0546D0
:10239000012000F038FA00F065FA284670BD70B5EB
:1023A00005460C4600F050FAD02000F038FA00F054
:1023B00001FA284600F033FA00F0FCF9204600F05C
:1023C0002EFA00F0F7F900F04DFA70BD08B500BF25
:1023D000002269461448006805F010FA01280FD160
:1023E0009DF8000003280BD1192004F065FF28B1E7
:1023F00000F084FB01F0E6F804F050FF002008BD77
:10240000192004F059FF58B101F0FCFF10231A46BF
:102410000021084600F014FF01F0D4F804F03EFF5C
:10242000062004F081FDD3E7DC00002000BFFEE7BA
:1024300038B5012056490870022500BF002400224B
:1024400069465448006805F0D9F9012836D19DF84D
:10245000000001280ED101254D4908704E48007832
:10246000401E4D49087008460078002826DC0820E8
:10247000087023E09DF8000002280FD102250120FA
:102480004349087044480078401C43490870084696
:102490000078082812DD012008700FE09DF8000088
:1024A00003280BD1192004F007FF28B100F026FB08
:1024B00001F088F804F0F2FE37480478012C01D1CD
:1024C000002038BD022C04D100F068F802F0B4F806
:1024D00028E0032C04D100F061F8FFF727FD21E08C
:1024E000042C04D100F05AF8FFF770FF1AE0052C15
:1024F00004D100F053F8FFF779FA13E0062C04D169
:1025000000F04CF8FFF70DF90CE0072C04D100F0B7
:1025100045F8FFF7EBFA05E0082C03D100F03EF890
:10252000FEF73AFE1C480078012811D1012D06D192
:10253000002201211648007801F086FB23E0022DDD
:1025400021D1002211461248007801F07DFB1AE0EB
:10255000012D0AD110480078401EC2B20E48017801
:102560000B48007801F070FB0DE0022D0BD10A48FA
:102570000078401EC2B208480078801EC1B20448EC
:10258000007801F061FB022004F0CEFC56E7000069
:1025900068000020DC0000207100002010B510242D
:1025A00029E000F0ABFA1548007801280ADB144A4C
:1025B0001278A2F13001114A1278521ED0B222468E
:1025C00000F0BAF822460E4801780C48007800F076
:1025D000B3F80A490978491CC8B222460849097863
:1025E000303100F0A9F800F0EDFF012004F09CFC70
:1025F00004F11000C4B2402CD3DD10BD64000020F3
:102600006600002008B500F079FA44482C231A46E9
:102610000A2100902A2000F0A9FE41480078414993
:102620000978884214DA4048007840490978401A0D
:102630003D4908700846007850B939480078401C78
:102640003749087000203A49087030203649087030
:102650003348007833490978884215DD32480078DC
:1026600032490978084430490870084600786028E3
:102670000AD12B480078401E2949087000202C49B7
:1026800008703020284908702548007801280ADBA6
:10269000254A1278A2F13001214A1278521ED0B296
:1026A000102200F049F81E48007802280ADB1E4A72
:1026B0001278A2F160011A4A1278921ED0B210224A
:1026C00000F03AF81022184801781548007800F018
:1026D00033F813490978491CC8B210221249097805
:1026E000303100F029F80E490978891CC8B210224F
:1026F0000D490978603100F01FF80A480078082871
:1027000009DA0C480749097850F8212006230021EE
:102710002C2000F0CFFE00F055FF08BD829F00087E
:102720006400002065000020660000206700002093
:102730006800002030000020F8B504460D4616461B
:10274000082C09DA054800EBC41020231A4631464C
:102750000090284600F00AFEF8BD0000829B0008A9
:1027600008B50121082000F0BFFF14208DF80300F8
:102770004FF44050ADF8000003208DF80200694688
:102780000448FFF795F84FF440510248FFF726F947
:1027900008BD0000000C014010B54FF48051044802
:1027A000FFF711F904460A20FEF72FFE204610BD60
:1027B000000C014010B5012000F06EF8012000F07F
:1027C0005DF8FFF7E9FF0446002000F057F82046C7
:1027D00010BD70B50025012000F05EF800240EE069
:1027E000012000F04BF8FFF7D7FF012802D180202D
:1027F00020410543002000F041F8601CC4B2082CC1
:10280000EEDB284670BD10B50446204600F044F8C3
:10281000012000F033F8002000F030F810BD70B552
:10282000054600240DE08021214101EA050000F069
:1028300033F8012000F022F8002000F01FF8601C9F
:10284000C4B2082CEFDB70BD10B5012000F024F8F5
:10285000012000F013F8002000F01EF8002000F026
:102860000DF810BD10B5002000F016F8012000F0A2
:1028700005F8012000F010F810BD000010B5044666
:1028800022464FF400510348FFF7AAF80A20FEF74A
:10289000BCFD10BD000C014010B5044622464FF4AB
:1028A00080510348FFF79CF80A20FEF7AEFD10BDEB
:1028B000000C014010B50121080700F0F5FE0121D0
:1028C000C80600F0F1FE012000F0D0FE0420FEF763
:1028D00037FD4BF2B331884220D0012000F09CFF3D
:1028E00000BF412000F07AFF0128FAD1000200F079
:1028F000B3FF012000F0AAFF00F0FCFF00F0F0FFA2
:1029000047F6FF7000F0DCFF00F0EAFF00F030F85F
:102910004BF2B3310420FEF721FD03E000F0EAFFA3
:1029200000F0DEFF10BD000010B58CB000F0B0FF6D
:1029300000F5E1400B900BA8FEF788F804462C2226
:1029400021466846FDF7A2FC059800F26C70074925
:1029500008600498401C4860039888600298C8602A
:1029600001980861009848610CB010BD1400002067
:1029700010B58CB010480068A0F26C7006900E483C
:102980004068401E05900C48806804900A48C06862
:10299000039009480069029007484069019001A826
:1029A000FDF720FCA0F5E144204600F07BFF00F09D
:1029B00097FF0CB010BD000014000020704700000D
:1029C00070B5002100230F22C47804B3154C24688D
:1029D00004F4E064C4F5E064210AC1F10403CA40D0
:1029E000447804FA03F184781440214309010E4C21
:1029F0000678A155047804F01F050124AC40057841
:102A00006D11AD0005F1E025C5F8004109E004783D
:102A100004F01F050124AC40044D0678761145F8FA
:102A2000264070BD0CED00E000E400E080E100E035
:102A300002490143024A1160704700000000FA0594
:102A40000CED00E0062854D2DFE800F05303132316
:102A50003343294949680C2903DD0121264A516085
:102A600006E025494968002902DC0C21224A516010
:102A700040E0214989681F2903DD01211E4A916038
:102A800006E01D498968002902DC1F211A4A91606D
:102A900030E01949C968172903DD0021164AD160C1
:102AA00006E01549C968002902DA1721124AD160E7
:102AB00020E0114909693C2903DB00210E4A11611C
:102AC00006E00D490969002902DA3B210A4A116131
:102AD00010E0094949693C2903DB0021064A51619C
:102AE00006E005494969002902DA3B21024A5161A1
:102AF00000E000BF00BF70471400002000200CE081
:102B0000002106E00022064B03EBC0135A544A1C76
:102B1000D1B28029F6DB421CD0B20828F0DB704726
:102B2000780100202DE9F04304460D4616461F4665
:102B3000284638E0224631E0002A2DDB7F2A2BDCB4
:102B4000002829DB3F2827DC4FEAE07C00EB5C7C97
:102B50004FEAEC0CDFF8588008EBCC1C1CF802C0E4
:102B600003464FEAE07800EB58784FEAE808A0EB1C
:102B7000C8094FF0010808FA09F82CEA080C0146C8
:102B80004FEAE07800EB58784FEAE808DFF8209049
:102B900009EBC81808F802C0511C0AB2A1199142E9
:102BA000CADC411C08B2E9198142C3DCBDE8F083EC
:102BB000780100202DE9F04F07460E4691469A46CF
:102BC000C9F1010B00254C46321911B27A1910B225
:102BD00000F036FA321B11B27A1B10B200F030FA54
:102BE000721911B23A1910B200F02AFA721B11B21E
:102BF0003A1B10B200F024FABAF1000F0FD0604275
:102C00000FFA80F809E006EB080001B2384600F040
:102C100017FA08F101000FFA80F8A045F3DB75E020
:102C2000681C05B2BBF1000F05DA6800401C58446F
:102C30000FFA80FB07E0601E04B2281B4000401C16
:102C400058440FFA80FB321911B27A1910B200F011
:102C5000F7F9721911B23A1910B200F0F1F9321BFA
:102C600011B27A1B10B200F0EBF9721B11B23A1BD1
:102C700010B200F0E5F9321B11B27A1910B200F06F
:102C8000DFF9721B11B23A1910B200F0D9F93219FA
:102C900011B27A1B10B200F0D3F9721911B23A1BBB
:102CA00010B200F0CDF9BAF1000F2FD060420FFA48
:102CB00080F811E006EB080211B27A1910B200F0A8
:102CC000BFF906EB080211B27A1B10B200F0B8F996
:102CD00008F101000FFA80F8A045EBDB68420FFA1B
:102CE00080F811E006EB080211B23A1B10B200F0B6
:102CF000A7F906EB080211B23A1910B200F0A0F9D8
:102D000008F101000FFA80F8A845EBDBA54287DB4C
:102D1000BDE8F08F2DE9FF4F97B007460E469B4662
:102D2000DDF864A0D94600254C46C9F10000FDF746
:102D30003DFD0022C14BCDE90801FDF7A1FBCDE926
:102D40000C010AFB0AF0FDF731FDCDE90A01DDE9CE
:102D50000C23FDF73CFCCDE9100109FB09F0FDF760
:102D600025FDCDE90E01DDE91023FDF789FBCDE955
:102D70001201FDF7CDFD15902498A8B160420FFA1D
:102D800080F80FE006EB080001B2384600F058F971
:102D900006EB080001B2384600F052F908F10100D4
:102DA0000FFA80F8A045EDDB321911B27A1910B292
:102DB00000F046F9321B11B27A1B10B200F040F954
:102DC000321911B27A1B10B200F03AF9321B11B26B
:102DD0007A1910B200F034F95BE000211598FDF784
:102DE000B3FD0DD809FB09F16A00D21C01FB02F00A
:102DF000FDF7CEFC13901599FDF77AFA159014E0C3
:102E000009FB09F16A00D21C51430AFB0AF2630074
:102E1000C3F1020302FB0310FDF7BAFC13901599EE
:102E2000FDF766FA1590601E04B2681C05B224987E
:102E3000B8B160420FFA80F811E006EB080211B257
:102E40007A1910B200F0FCF806EB080211B27A1BF6
:102E500010B200F0F5F808F101000FFA80F8A04573
:102E6000EBDB321911B27A1910B200F0E9F8321B1B
:102E700011B27A1B10B200F0E3F8321911B27A1BCA
:102E800010B200F0DDF8321B11B27A1910B200F066
:102E9000D7F82046FDF78AFC0022684BCDE90A01ED
:102EA000FDF78FFBCDE90E010AFB0AF0FDF77EFC72
:102EB000CDE90C01DDE90E23FDF789FBCDE9120117
:102EC00009FB09F16A1C01FB02F0FDF76FFCCDE97B
:102ED0001001DDE91223FDF7EBFCFFF47EAF0AFBE6
:102EE0000AF101FB09F101FB09F0FDF75FFCCDE9F7
:102EF00010010AFB0AF1621E514301FB02F0FDF7CB
:102F000055FCCDE90C012846FDF750FC00224B4B47
:102F1000CDE90401FDF7B4FACDE908012846FDF733
:102F200045FC0022454BCDE90001FDF7A9FACDE9AA
:102F3000040109FB09F0FDF739FCCDE90201DDE9E7
:102F40000423FDF744FBCDE90601DDE90823FDF785
:102F50003EFBCDE90A01DDE90C23FDF791FACDE94D
:102F60000E01DDE91023FDF72CFBCDE91201FDF781
:102F7000CFFC14905CE000211498FDF7E5FC15D817
:102F800009FB09F16A00921C51430AFB0AF2630033
:102F9000C3F1030302FB0310FDF7FAFB139014992E
:102FA000FDF7A6F91490681C05B20DE00AFB0AF1C2
:102FB0006200C2F1030201FB02F0FDF7E9FB13908E
:102FC0001499FDF795F91490601E04B22498B8B1D5
:102FD00060420FFA80F811E006EB080211B27A198C
:102FE00010B200F02DF806EB080211B27A1B10B2F5
:102FF00000F026F808F101000FFA80F8A045EBDB9D
:10300000321911B27A1910B200F01AF8321B11B24B
:103010007A1B10B200F014F8321911B27A1B10B2F8
:1030200000F00EF8321B11B27A1910B200F008F855
:10303000002CA0DC1BB0BDE8F08F00000000E03FDA
:1030400070B50346002B20DB7F2B1EDC00291CDB28
:103050003F291ADCCC1701EB5474E4100B4D05EB3F
:10306000C414E45C0A46CD1701EB5575ED10A1EBD5
:10307000C5060125B5402C430846CD1701EB557513
:10308000ED10024E06EBC515EC5470BD7801002022
:1030900038B5002406E0002500E06D1CB5F57A7F08
:1030A000FBD3641CB4F57A7FF5D30121082000F02E
:1030B0001BFB14208DF8030003208DF802004FF451
:1030C0008070ADF8000069460848FEF7F1FB4FF448
:1030D0000070ADF8000069460448FEF7E9FB0120E6
:1030E00000F084FA012000F08DFA38BD000C014098
:1030F00070B50546002411E080212141294009B125
:10310000012100E00021084600F07CFA012000F0D7
:103110006DFA002000F06AFA601CC4B2082CEBDBE8
:10312000012000F063FA002000F060FA70BD10B5D5
:10313000012000F067FA012000F058FA002000F0AA
:1031400061FA002000F052FA10BD10B5002000F026
:1031500059FA012000F04AFA012000F053FA10BD9C
:1031600010B5FFF795FFAE2000F058FAD52000F01B
:1031700055FA802000F052FAA82000F04FFA3F20C4
:1031800000F04CFAD32000F049FA002000F046FA93
:10319000402000F043FAA12000F040FAC82000F0DF
:1031A0003DFADA2000F03AFA122000F037FA8120D6
:1031B00000F034FACF2000F031FAD92000F02EFAD6
:1031C000F12000F02BFADB2000F028FA302000F08C
:1031D00025FAA42000F022FAA62000F01FFA8D2084
:1031E00000F01CFA142000F019FAAF2000F016FAD3
:1031F000FFF784FC00F0E6F910BD10B5024601208F
:1032000000E050430B1EA1F10101FAD110BD0FB433
:1032100070B5C2B005460E4614464AA8019002A8F1
:10322000019A499901F09AFC00200190234602AAD4
:103230003146284600F03EF942B070BC5DF814FB00
:103240002DE9F04304460D4616461F46284638E051
:10325000224631E0002A2DDB7F2A2BDC002829DBE7
:103260003F2827DC4FEAE07C00EB5C7C4FEAEC0C6B
:10327000DFF8588008EBCC1C1CF802C003464FEA6C
:10328000E07800EB58784FEAE808A0EBC8094FF067
:10329000010808FA09F88CEA080C01464FEAE078C0
:1032A00000EB58784FEAE808DFF8209009EBC818DF
:1032B00008F802C0511C0AB2A1199142CADC411C93
:1032C00008B2E9198142C3DCBDE8F083780100202F
:1032D00070B505460C4645F0B00000F09FF910218E
:1032E00041EA141000F09AF904F00F0000F096F98A
:1032F00070BD0000F8B506460F4614461D46082D61
:103300000CD1A4F12000164901EB00101023082273
:1033100039460090304600F029F820E0062D0ED105
:10332000A4F1200000EB40000E4901EB400008230F
:10333000062239460090304600F018F80FE00C2DB8
:103340000DD1A4F1200000EBC000074901EB800083
:1033500018230C2239460090304600F007F8F8BDDB
:103360005C8100084C870008868900082DE9FF4F22
:1033700080460E469146DDF834B0002500244A46CA
:1033800031464046039BFFF7CDFB00BF5EE00025C2
:1033900058E008EB0500002852DB08EB05007F2809
:1033A0004EDC3046F11706EB5171C9100FB2F11720
:1033B00006EB5171C910A6EBC10A002E05DA781E82
:1033C00007B20AF108000FFA80FA3819002817DB53
:1033D0003819072814DC3819224901EBC01008EB12
:1033E0000501405C04FB09511BF8011001FA0AF1C8
:1033F000084339191B4A02EBC11108EB0502885436
:103400003819401C00281BDB3819401C072817DC22
:103410003819401C134901EBC01008EB0501405C52
:1034200004FB09511BF80110CAF1080211410843BD
:103430003919491C0B4A02EBC11108EB05028854EB
:10344000681CC5B24D45A4DB601CC4B20399481E7C
:10345000C11700EB5171012202EBE101A14296DCA0
:10346000BDE8FF8F780100202DE9F0470646894628
:1034700017461D46DDF82080002417E0281B411E5A
:103480000A20FFF7BAFEB7FBF0F00A21B0FBF1F219
:1034900001FB120000F1300A04FB086108B2434648
:1034A00052464946FFF726FF601CC4B2AC42E5DB3A
:1034B000BDE8F0872DE9FE4F07468A461446984638
:1034C0000025AB46002672E0605D00F0800058B930
:1034D0004FF0010B2846691C8DB2205C8DF804006A
:1034E00000208DF8050013E04FF0020B2846691C00
:1034F0008DB2205C8DF80400605D00B95AE028466A
:10350000691C8DB2205C8DF8050000208DF8060046
:10351000BBF1010F0BD19DF80420B91908B2434645
:103520005146FFF7E7FE06EB080086B23FE04FF09A
:1035300000090EE0C9EBC90101EB81011F4A88189F
:1035400001A9FCF7C7FE00B90EE009F101001FFA5E
:1035500080F9C9EBC90101EB8101184A881818A14B
:10356000FCF7B8FE0028E5D100BFB8F1080F12D172
:10357000C9EBC90000EB800010490844C01CB91910
:10358000009008B210231A465146FFF7EFFE06F1ED
:10359000100086B20BE0B8F1060F08D1B91908B2D5
:1035A00006233F225146FFF7A5FEB01D86B2605D9F
:1035B000002889D100BFBDE8FE8F0000E296000818
:1035C0000000000010B500240BE000212046FFF7AA
:1035D0007FFE054901EBC410802100F02FF8601C2C
:1035E000C4B2082CF1DB10BD7801002010B50446F0
:1035F00022464FF480710248FEF7F2F910BD000038
:10360000000C014010B5044622464FF400710248F8
:10361000FEF7E6F910BD0000000C014010B50446AD
:10362000FFF785FD7820FFF763FD0020FFF760FDC1
:103630002046FFF75DFDFFF788FD10BD70B505461C
:103640000E46FFF774FD7820FFF752FD4020FFF78C
:103650004FFD002404E0285DFFF74AFD601CC4B262
:10366000B442F8DBFFF771FD70BD0000014908624C
:103670007047000000000E4210B5FFF71BF9FEF77F
:10368000C5FBFEF72DFCFEF74FFEFDF72DFC10BD30
:1036900001460020034A506820F44040084350602F
:1036A000704700000010024029B1064AD269024367
:1036B000044BDA6104E0034AD2698243014BDA61C8
:1036C000704700000010024029B1064A1269024307
:1036D000044B1A6104E0034A12698243014B1A61E8
:1036E000704700000010024029B1064A9269024367
:1036F000044B9A6104E0034A92698243014B9A6148
:10370000704700000010024030B500210022002464
:1037100000232D4D6D6805F00C0121B1042905D061
:10372000082923D105E0294D056022E0274D0560D9
:103730001FE0254D6D6805F47012234D6D6805F48A
:103740008034022505EB92421CB9214D554305609A
:103750000BE01D4D6D6805F400351DB11C4D554342
:10376000056002E0194D5543056002E0174D056004
:1037700000BF00BF144D6D6805F0F0010909154D3B
:103780006B5C0568DD4045600F4D6D6805F4E061D8
:10379000090A104D6B5C4568DD4085600A4D6D6817
:1037A00005F46051C90A0B4D6B5C4568DD40C5608E
:1037B000054D6D6805F44041890B074D6B5CC5688C
:1037C000B5FBF3F5056130BD0010024000127A0030
:1037D00000093D00000000201000002010B5014647
:1037E0000022002300204A11012A02D1094C23683B
:1037F00006E0022A02D1074C236A01E0054C636A05
:1038000001F01F02012494401C400CB1012000E093
:10381000002010BD0010024000210B4A11700A4A1E
:10382000203A82F82010012802D0042808D103E0B1
:103830000121054A117004E00521034A117000E0DE
:1038400000BF00BF7047000020100240014908601F
:10385000704700003C0442420249096A0143014AA0
:1038600011627047001002400348008840F01000C9
:103870000149088070470000042800400348008880
:103880004FF6EF7108400149088070470428004056
:10389000002103480188001F008841EA004070476A
:1038A0001C28004000B50246FFF7DEFF100C03495C
:1038B0000880091D0A80FFF7E1FF00BD18280040BD
:1038C00000B50246FFF7D0FFC2F30340034908806A
:1038D000091D0A80FFF7D2FF00BD00000828004044
:1038E00000BF0348008800F020000028F9D070478E
:1038F00004280040074800884FF6F7710840054942
:10390000088000BF0348008800F008000028F9D0B4
:10391000704700000428004000B585B001218803ED
:10392000FFF7E2FE01210420FFF7DEFE18208DF8EC
:1039300013004FF40070ADF8100003208DF8120052
:1039400004A91548FDF7B4FF48208DF813004FF483
:103950008060ADF8100003208DF8120004A90E4815
:10396000FDF7A6FF4FF4E13000900020ADF80C0009
:103970000C20ADF80A000020ADF80800ADF80600F4
:10398000ADF804006946054801F030F8012103480C
:1039900001F012F805B000BD0008014000380140F8
:1039A00010B504462146054801F08CF800BF80217F
:1039B000024801F00DF80028F9D010BD0038014090
:1039C00010B50421022000F0F3F810BD10B5052158
:1039D000032000F0EDF810BD10B50621042000F022
:1039E000E7F810BD10B50321012000F0E1F810BD8B
:1039F00010B50721052000F0DBF810BD10B500F070
:103A000001F810BD0CB5002001900090334800680B
:103A100040F480303149086000BF3048006800F44D
:103A2000003000900198401C0190009818B901984E
:103A3000B0F5A06FF1D12948006800F4003010B152
:103A40000120009001E0002000900098012843D15F
:103A50002348006840F010002149086008460068CB
:103A600020F0030008600846006840F0020008608B
:103A70001A48406819494860084640684860084646
:103A8000406840F4806048600846406820F47C103C
:103A900048600846406840F4E810486008460068FE
:103AA00040F08070086000BF0C48006800F00070B3
:103AB0000028F9D00948406820F003000749486011
:103AC0000846406840F00200486000BF0348406874
:103AD00000F00C000828F9D10CBD000000100240D5
:103AE0000020024070B50120304908605DE00024EC
:103AF00000F088F80546012D0BD12C480068401EC7
:103B00002A49086008460068002814DC072008607D
:103B100011E0022D0BD125480068401C23490860A4
:103B200008460068082806DB0120086003E0032D32
:103B300001D11E480478012C0BD1192003F0BCFBE5
:103B400028B1FEF7DBFFFFF73DFD03F0A7FB0020E8
:103B500070BD022C02D100F071F817E0032C02D1E5
:103B6000FFF740FF12E0042C02D1FFF729FF0DE020
:103B7000052C02D1FFF72AFF08E0062C02D1FFF73F
:103B80002BFF03E0072C01D1FFF732FF0748006845
:103B9000042804DC05490878FDF706FD03E0034925
:103BA0000878FDF764FD00F028F8A0E7B4000020D5
:103BB00070B506460D4600BF00F024F80446012CFF
:103BC00004D101213046FDF7D9FB0AE0022C04D1D3
:103BD00000213046FDF7D2FB03E0032C01D1002089
:103BE00070BD042D03DC2846FDF714FD02E02846D5
:103BF000FDF76AFD00F001F8DEE710B5052003F0DF
:103C000093F910BD08B500200090002269460948CC
:103C1000006803F0F3FD012806D19DF80000064975
:103C200008709DF8000008BD00200349087000BF1F
:103C3000F9E70000DC0000202C00002010B5022174
:103C40000020FFF7B5FF10BD70B506460C461546BF
:103C5000012E03D10348047003480570FEF7D2FC1F
:103C600070BD0000640000206500002008B500BFA2
:103C7000002269463248006803F0C0FD012839D1AE
:103C80009DF8000001280BD12E480068401E2D49E8
:103C900008600846006800282CDC0220086029E043
:103CA0009DF8000002280BD126480068401C2549D9
:103CB00008600846006803281CDB0120086019E042
:103CC0009DF80000032815D1192003F0F5FA28B15A
:103CD000FEF714FFFFF776FC03F0E0FA19480068DE
:103CE000012801D1002008BD16480068022801D132
:103CF000FFF7F8FE192003F0DFFAE8B1FEF7FEFE49
:103D000000F038FC0F480068012802D002280ED1CC
:103D100006E010231A4600210846FFF791FA06E054
:103D20001023602219460020FFF78AFA00BF00BF67
:103D3000FFF748FC03F0B2FA0C2003F0F5F897E720
:103D4000DC000020600000202DE9FC412B481023FE
:103D50001A46002100900846FFF708FB082328A216
:103D600000212020FFF7A6FB2748007868B9082328
:103D700026A218210020FFF79DFB082326A22C2154
:103D80000020FFF797FBBDE8FC812648B0F9004012
:103D900025480588002C11DA604206B20A2096FBFD
:103DA000F0F100FB116796FBF0F820A30822142124
:103DB0000020CDE90087FFF72AFA0EE00A2094FBE5
:103DC000F0F100FB114794FBF0F81CA3082214212A
:103DD0000020CDE90087FFF71AFA0A2095FBF0F1E1
:103DE00000FB115795FBF0F818A3082228210020AA
:103DF000CDE90087FFF70BFA00BFC4E7629B00081C
:103E00004148543230000000D40000204148543270
:103E100030204572726F7200436865636B204932CF
:103E200043320000D0000020D200002054656D70A5
:103E30003A2D25642E2564430000000054656D7002
:103E40003A2025642E2564430000000048756D6902
:103E50003A2025642E2564252500000008B5174862
:103E600000788F2808DBFCF7ABF9032190FBF1F217
:103E700001FB1200124908701148007800EB400065
:103E8000104901EB00100D4900900978C1F17F0045
:103E9000122310222C21FFF769FA08480078C0F19C
:103EA0007F000949087005480078C0F18F008870CC
:103EB0002C2048703E20C87008BD0000BF000020C4
:103EC000BE0000208AA10008C00000202DE9F84FA4
:103ED0000024002508E0FCF7FFFF4A490880084657
:103EE00000880444681C85B240F6B8308542F2DB95
:103EF00094FBF0F04349088008460088FCF751FC29
:103F000082464149FCF77EFA8146FCF7BEFC074633
:103F10004FF066323D4BFCF75AFB0546FCF7F8FCC8
:103F20003B49086037480088A0F6CC4064214843EC
:103F300040F2333190FBF1F03649086008460068E2
:103F4000002801DA00200860062003230090314891
:103F5000042102685520FFF787FA06232522042151
:103F60006720FFF7C7F92B480068642808D12A4862
:103F700010231A46002100906E20FFF7F7F93EE06B
:103F8000244800680A2826DB22480068642822DAD0
:103F9000214810231A46002100906E20FFF7E6F911
:103FA0001C4800680A2190FBF1F0C0F10A00C5B27C
:103FB0001848006890FBF1F0703006B206232A46DC
:103FC00005213046FEF7AEFD0823062204215520C8
:103FD000FEF7A8FD13E0104810231A4600210090B8
:103FE0006E20FFF7C3F906230A2205217020FEF791
:103FF00099FD08230C2204215520FEF793FDBDE80E
:10400000F88F00005000002000F07F4566660A40EF
:10401000540000205800002036A300080EB5FFF71A
:1040200055FFFEF781FC1548806814494968134A1A
:10403000126813A3CDE90021029006220021084650
:10404000FFF7E5F80D4840690C4909690B4AD26849
:104050000EA3CDE9002102900C2210210846FFF7A3
:10406000D6F808230DA230210020FFF723FA0823F9
:104070000CA230216020FFF71DFA0EBD14000020B5
:1040800025642D25642D2564000000002530326450
:104090003A253032643A253032640000B2CBB5A5FF
:1040A00000000000C9E8D6C30000000008B50648BB
:1040B000064900900978C1F17F00082310220921E8
:1040C000FFF754F908BD00001AA20008C400002040
:1040D0002DE9FC5F002201A93148006803F08EFB46
:1040E000012805D19DF80400012801D12D4908704F
:1040F0002D480088FCF755FB2C490090FCF750F93F
:1041000083462B49FCF77EF98246FCF7BEFB064648
:1041100002F07AFC04460022264BFCF758FA80464F
:10412000FCF79AFB244908701E480078D0B923494F
:10413000087800EBD0714910A0EB410141B920484B
:10414000122310222C2100900020FFF70FF915E018
:104150001B483030122310222C2100900020FFF742
:1041600005F90BE016486030009013480078C0F164
:104170002C01122310220020FFF7F8F8002011492B
:104180000870102088700C480078C0F12C0048702E
:1041900009480078C0F14000C870BDE8FC9F0000ED
:1041A000DC000020C5000020C6000020DA0F4940D6
:1041B00000007A4400003C40C8000020C4000020F9
:1041C0002AA20008C900002038B500243AE0FEF712
:1041D00095FC3E4804F10A0110231A4600901E2067
:1041E000FFF7C4F83948203004F10A0110231A46B9
:1041F00000905220FFF7BAF801200090C4F10600A9
:10420000C3B2062220212820FEF784FD0120009061
:10421000C4F10600C3B2062220215820FEF77AFD21
:104220002B4814231A46282100903620FFF79EF8C9
:10423000FFF7C8F92820FDF79CFA08B1012038BD26
:10424000601CC4B2032CC2DB002438E0FEF756FC2D
:104250001E48C4F10C0110231A4600901E20FFF7DF
:1042600085F81A482030C4F10C0110231A4600903A
:104270005220FFF77BF801200090201DC3B20622D8
:1042800020212820FEF746FD01200090201DC3B20A
:10429000062220215820FEF73DFD0D4814231A4622
:1042A000282100903620FFF761F8FFF78BF92820CE
:1042B000FDF75FFA08B10120C1E7601CC4B2032C0E
:1042C000C4DBC820FDF755FAB9E70000BAA2000820
:1042D000FAA2000808B5074810231A4600210090EA
:1042E0000846FFF743F8082303A210210020FFF738
:1042F000E1F808BD629B0008B9C8B8E8D0A1BFD6F4
:10430000C1FA000070B500231E2220214020FEF7D4
:1043100051FC0D4801684FF08440FBF7E9FF064669
:10432000FCF762FA04B2094801684FF08540FCF7D7
:1043300031F80646FCF758FA05B20123042221465B
:104340002846FEF737FC70BD98000020940000203E
:104350001B48008880280DDA002008E018490988E9
:104360000144184A525C18490A54411CC8B28028BA
:10437000F4DB23E0002008E0114909880144114AD8
:10438000525C11490A54411CC8B20D490988C1F157
:10439000FF018142F0DC0A490988C1F1FF01C8B27E
:1043A0000AE007490988C1F1FF01411A054A525C38
:1043B00005490A54411CC8B28028F2DB704700004E
:1043C000BC0000208AA00008F804002008B50A48B4
:1043D00010231A46002100900846FEF7C7FF0C2361
:1043E00006A214210846FFF765F80C2304A2142145
:1043F0004820FFF75FF808BD629B00084F46460063
:104400004F4E00007CB5164810231A46002100903C
:104410000846FEF7ABFF13480068FCF736FA12A314
:104420000822CDE9000110210020FEF7F0FE11481E
:104430000068FCF72AFA10A30822CDE90001202128
:104440000020FEF7E4FE0F480068FCF71EFA0EA3FA
:104450000822CDE9000130210020FEF7D8FE7CBD06
:10446000629B000894000020526F6C6C3A20252E4D
:10447000326600009800002050697463683A252E67
:10448000326600009C0000205961773A2020252EDA
:104490003266000008B5062005230090034800217D
:1044A00002686220FEF7E0FF08BD0000B8000020AF
:1044B00008B5124810231A46002100900846FEF75E
:1044C00055FF0F4800680FA308221021009000201C
:1044D000FEF79DFE0A4840680CA3082220210090A8
:1044E0000020FEF794FE064880680AA308223021C7
:1044F00000900020FEF78BFE08BD0000629B0008C4
:1045000014000020C4EA3A2534640000D4C23A25DD
:1045100032640000C8D53A253264000008B50E4860
:10452000C0680EA30822002100900846FEF76FFE27
:10453000094800690BA30822102100900020FEF713
:1045400066FE0548406909A308222021009000204A
:10455000FEF75DFE08BD000014000020CAB13A2538
:1045600032640000B7D63A2532640000C3EB3A2526
:104570003264000008B5074810231A460021009055
:104580000846FEF7F3FE082303A210210020FEF7E1
:1045900091FF08BD629B0008C8D5C6DACAB1BCE469
:1045A000C9E8D6C3000000000EB5154810231A460E
:1045B000002100900846FEF7D9FE12480078124903
:1045C0000978124A127812A3CDE90021029008223C
:1045D00014212020FEF71BFE082311A228211846D3
:1045E000FEF768FF082310A228213020FEF762FFA3
:1045F00008230FA228215820FEF75CFF0EBD000003
:10460000629B00086D0000206C0000206B00002001
:10461000253032643A253032643A25303264000065
:10462000BFAACABC00000000CDA3D6B9000000009C
:10463000C7E5B3FD0000000008B500BF19224D49D1
:104640004D48006803F0DAF8012820D14948007885
:10465000012801D1002008BD46480078022802D177
:1046600001204649087043480078032802D1002001
:10467000424908703F480078042808D100203F498B
:1046800008703F4908703F4908703F490870002290
:1046900069463E48006803F0B1F8012834D19DF81E
:1046A000000001280BD133480078401E31490870C2
:1046B00008460078002827DC0420087024E09DF8D4
:1046C000000002280BD12B480078401C29490870B3
:1046D00008460078052817DB0120087014E09DF8D3
:1046E0000000032810D1192002F0E6FD28B1FEF7E2
:1046F00005FAFEF767FF02F0D1FD002319221D49DC
:104700001D48006802F02AFF192002F0D5FD68B3A9
:10471000FFF74AFF17480078012806D002280BD07F
:10472000032810D004281CD114E010231A460021BD
:104730000846FEF785FD14E01023202228210820DA
:10474000FEF77EFD0DE01023202228213020FEF709
:1047500077FD06E01023202228215820FEF770FD67
:1047600000BF00BFFEF72EFF02F098FD0C2002F004
:10477000DBFB63E769000020E00000206A00002006
:104780006D0000206C0000206B000020DC00002089
:1047900010B503F02FFA012801D002F011FE10BD70
:1047A00010B51348006840F0010011490860084640
:1047B0004068104908400E494860084600680E49A4
:1047C00008400B4908600846006820F48020086013
:1047D0000846406820F4FE0048604FF41F008860DF
:1047E000FFF70CF94FF000600449086010BD0000AD
:1047F000001002400000FFF8FFFFF6FE08ED00E0A9
:1048000010B50121880700F027F801280FD1FDF726
:10481000ABFAFDF71DFB06480078012801D100F036
:1048200057F9FCF74FFE0121880700F006F810BD8C
:104830006A000020CA4302827047CA43028270475E
:1048400021B1028842F00102028004E002884FF6A2
:10485000FE731A400280704730B5024600200023E4
:104860000024158A05EA0103958905EA010413B1BC
:104870000CB1012000E0002030BD1AB183890B4348
:10488000838102E083898B438381704701894FF6DE
:10489000F872114001817047002202881D4B984236
:1048A0000ED01D4B98420BD0B0F1804F08D01B4B5F
:1048B000984205D01A4B984202D01A4B984204D124
:1048C0004FF68F731A404B881A43174B984207D004
:1048D000164B984204D04FF6FF431A40CB881A4338
:1048E00002808B8883850B8803850A4B98420BD006
:1048F000094B984208D00E4B984205D00D4B984278
:1049000002D00D4B984201D10B7A0386012383829A
:1049100070470000002C01400034014000040040BA
:1049200000080040000C004000100040001400404F
:104930000040014000440140004801401FB50121F2
:104940000846FEF7B1FE4FF08040FFF79FFF0020C2
:10495000ADF80A00ADF806006320ADF8080040F29B
:10496000CF20ADF8040000208DF80C0001A94FF015
:104970008040FFF791FF01218807FFF75BFF0122CD
:1049800011469007FFF779FF4FF4A060FEF750F84B
:104990001C208DF8000001208DF8030002208DF806
:1049A000010001208DF802006846FEF709F8012198
:1049B0008807FFF745FF1FBD21B1828942F40052ED
:1049C000828104E082894DF6FF731A40828170472C
:1049D00002460020B1F5007F00D100BF13880B40D4
:1049E0000BB1012000E00020704700002DE9F047E6
:1049F00086B005460E460024A24600BFA146002709
:104A0000B08900B100BF2F462C8A4CF6FF700440DD
:104A1000F08804432C82AC894EF6F3100440B08831
:104A200031890843718908430443AC81AC8A4FF64D
:104A3000FF400440B0890443AC8201A8FEF764FE45
:104A40001F48874202D1DDF810A001E0DDF80CA07C
:104A5000A88900F4004040B10AEBCA0000EB0A103C
:104A600031684900B0FBF1F807E00AEBCA0000EB3F
:104A70000A1031688900B0FBF1F86420B8FBF0F04F
:104A800004012009642101FB1089A88900F4004079
:104A900040B1322000EBC900B0FBF1F000F007009C
:104AA000044308E0322000EB09106421B0FBF1F070
:104AB00000F00F0004432C8106B0BDE8F087000031
:104AC00000380140C1F308028280704700BFFEE752
:104AD00016480088401C1549088008460088B0F533
:104AE0007A7F22D10020088011480078401C1049AC
:104AF0000870084600783C2817DB002008700D4835
:104B00000078401C0B490870084600783C280CDBF4
:104B10000020087008480078401C074908700846C3
:104B20000078642801DB0020087070476E000020C8
:104B30006D0000206C0000206B0000200FB4054BBE
:104B400010B503A9044A029800F040FC10BC5DF8BF
:104B500014FB0000815D00087001002037B5144689
:104B60000846064B6A46214600F030FC044669467A
:104B7000002000F0AEFF20463EBD0000D35A0008E2
:104B8000490050EAC12018BF04204A0D18BF40F068
:104B9000010040F2FF72B2EB515F08BF40F002002B
:104BA000012808BF052070474100080218BF0420F3
:104BB0000A0E18BF40F001004FF07F4232EA0101B7
:104BC00008BF40F00200012808BF05207047000020
:104BD0002DE9F74F144694B00021C4E9021115994C
:104BE000079121F00045C9498D4206DC1599C4E9B9
:104BF000000117B00020BDE8F08FC549DFF814A30D
:104C0000A9423CDD0799C44E0029C44FC44A1599F6
:104C1000534619DDFBF7D5FC554506D0C14AC24BBA
:104C2000FBF7CFFCC4E900010AE04FF0D352BE4BC2
:104C3000FBF7C7FC32463B46FBF7C3FCC4E9000167
:104C400017B00120BDE8F08FFBF71AFC554506D0E0
:104C5000B44AB54BFBF714FCC4E900010AE04FF07D
:104C6000D352B14BFBF70CFC32463B46FBF708FC3A
:104C7000C4E9000117B04FF0FF30BDE8F08FAB4939
:104C8000A942159978DB21F0004183468846A84A5D
:104C9000A84BFBF79CFC0022A74BFBF7F1FBFBF7B3
:104CA000BCFD0990FBF782FD06460F469C4A534621
:104CB000FBF78DFC43465A46FBF786FC80468A4646
:104CC000984A994B30463946FBF781FC2A0D01255D
:104CD0000B9242465346FBF777FC032DC4E90001D3
:104CE00039D00B98C1F30A51401A05EB451111391F
:104CF000814230DA9148C346784400EB0510CDF884
:104D00000CA00C90D0E9002330463946FBF75FFC3D
:104D100002460B460491069058460399FBF751FC56
:104D200080468A4602460B4658460399FBF749FCE3
:104D3000049B069AFBF745FC83460C980391394681
:104D4000D0E902233046FBF742FC5A46039BFBF7AF
:104D500038FC6D1CBDE707980028A2BF099817B062
:104D6000BDE8F08F616881F000416160099817B07B
:104D70004042BDE8F08FFFE784461598C1F3130168
:104D8000C0F30A50A0F2F5304FEA601800F01F0699
:104D9000C6F12000139000200690079041F4801E79
:104DA00005206D4676B1664A08EB00017A4452F858
:104DB000213002EB8101B3404A68139922FA01F1D4
:104DC000194305E05F4908EB0002794451F82210CD
:104DD000A1FB0E27A1FB0C131A449A4234BF0123F6
:104DE000002303EB070A05EB8003D3E901B70F4467
:104DF0008F4234BF0121002193448B4411B193456C
:104E000002D903E0934501D2012100E00021C3E96A
:104E100001B7514445F82010011EA0F10100C1DC8A
:104E20000298059F00F10050800F12900298DDE972
:104E300003568000FBF7BAFC834628460D91FBF72A
:104E4000C6FC6FF01D02FBF747FFCDE90E013046AF
:104E5000FBF7BDFC6FF03D02FBF73EFF80468A4644
:104E60003846FBF7B4FC6FF05D02FBF735FF0746F1
:104E7000424653461191FBF703FBDDE90E23FBF796
:104E8000FFFA5A460D9BFBF7FBFA00250E465A46E1
:104E900028460D9BFBF795FBDDE90E23FBF791FB05
:104EA00042465346FBF78DFB3A46119BFBF78CFBC2
:104EB000DFF898A0244A5346FBF789FB074688464B
:104EC000234A244B31462846FBF781FB3A464346AA
:104ED000FBF7D6FA074688464FF0A84253463146BC
:104EE0002846FBF774FB3A464346FBF7C9FA159A86
:104EF00012F0004F04D0129A81F0004152421292F7
:104F0000C4E90001129817B0BDE8F08FFB21E93F1A
:104F10007CD90240FB21F93F7370032E8A19A33B11
:104F2000000040543163621A61B4D03DFB21394125
:104F300083C8C96D305FE43F0000E03F9C5600002D
:104F400018560000FA550000182D4454FB21F93D75
:104F50003326A611460B113C2DE9FF4D21F00048E8
:104F600007460C46B8F1795F08DAFBF756FC0028D3
:104F700001BF0020324904B0BDE8F08D3A46234617
:104F800010461946FBF723FB054602462D480E4600
:104F90000B460621784400F05DF82A463346FBF7BD
:104FA00016FBDDE9022382468B4638462146FBF795
:104FB0000EFB04460F4652465B4628463146FBF739
:104FC00006FB22463B46FBF7FCFA07468A464FF0B3
:104FD000FF3228463146FBF77FFE1B4A90450ADA2E
:104FE0003A465346FBF7EDFA04B00022BDE8F04D17
:104FF000134BFBF7E9BA154A4245A8BFA8F50015BF
:105000004FF00004B8BF124D22462B46FBF7D9FAE9
:105010000646884622462B4600200949FBF7D1FA6E
:1050200004460D463A46534630464146FBF7C9FA18
:1050300004B022462B46BDE8F04DFBF7C5BA000090
:105040000000F03FD05300003333D33F0000E93F6E
:105050000000D23F2DE9F0414F1E00EBC70104468E
:10506000D1E9000115461E4637F006020DD02A464A
:105070003346FBF7ACFA7F1E04EBC703D3E90023EA
:10508000FBF7FEF937F00602F1D1022F25D0042FED
:1050900013D0062F18BFBDE8F0812A463346FBF730
:1050A00096FAD4E90A23FBF7EBF92A463346FBF7D5
:1050B0008EFAD4E90823FBF7E3F92A463346FBF7D7
:1050C00086FAD4E90623FBF7DBF92A463346FBF7D9
:1050D0007EFAD4E90423FBF7D3F92A463346FBF7DB
:1050E00076FAD4E90223FBF7CBF92A463346FBF7DD
:1050F0006EFAD4E90023BDE8F041FBF7C1B9000026
:105100002DE9FF4D054621F0004084B00C46B0F17A
:10511000795F0BDA2846FFF733FD042808BF00F05B
:105120006FF8284608B02146BDE8F08D2A460B46A8
:105130001046FBF74CFA06460F462A462346FBF775
:1051400046FA804626488A4632463B460521784440
:10515000FFF780FF83461098029160B3214A224BEB
:1051600040465146FBF733FACDE900015A46404626
:105170005146029BFBF72BFA82468846DDE9060181
:105180004FF0FF32FBF7A8FD52464346FBF719FAF2
:1051900032463B46FBF71BFADDE90623FBF711FA23
:1051A000DDE90023FBF70DFA08B02A462346BDE8E7
:1051B000F04DFBF709BA0B465A4630463946FBF725
:1051C00006FA084A084BFBF75BF942465346FBF7E1
:1051D000FEF908B02A462346BDE8F04DFBF750B96A
:1051E0000E530000495555555555C5BF0122FBF7D3
:1051F00073BD0022134610461146FBF75ABA000051
:10520000024A00201107FBF767BD000001FDFFFF08
:10521000FBF76EB86FF05E010807FBF751BD02E0C7
:1052200008C8121F08C1002AFAD170477047002031
:1052300001E001C1121F002AFBD17047014908603B
:1052400070470000740100202DE9FF5F82B000214B
:10525000DDE90430020DDDF840B0034318D044F618
:105260001050A2F2FF3242431514119801281FD0AA
:10527000A5EB0B00401C5FEA000A4FF000064E4F02
:10528000DFF83891B046504615D5CAF1000413E056
:10529000119801244AA3012801D16FEA0B01029859
:1052A000119AC0E90031C0E9024206B0BDE8F09FA2
:1052B000CBF10000DFE704460021404A491842EBE9
:1052C0000450CDE9001012E0E00707D032463B461B
:1052D00040464946FBF77BF98046894632463B46C5
:1052E00010461946FBF773F906460F466410002C6A
:1052F000EAD1DDE90401DDE90023BAF1000F06DAA5
:10530000FBF765F942464B46FBF761F905E0FBF711
:10531000D0F942464B46FBF7CCF904460E46002234
:10532000284BFBF7DDFA03D84FF0FF30014607E0CA
:105330000022254B20463146FBF7A2F8FBF795FCEF
:10534000102409E0002C0ADB0A220023FBF71CFBD7
:10535000039B30321A55641E50EA0102F2D1641CDC
:10536000039AC4F111031444119A012A03D00122B3
:1053700008430DD10AE0084304D000204FF0110B80
:10538000119072E7A3EB0B056D1E0DE05B4504DD8C
:105390004FF0000205F1010504E003DA4FF00002CE
:1053A000A5F10105002AECD002981199C0E902315B
:1053B000C0E9004579E70000000014400000F03F1C
:1053C000300000000000F0430000E03F2DE9FF4FF7
:1053D00095B09A46884606460025EEE1252877D105
:1053E00000242746F94A0121039400E0044316F8FB
:1053F000013F203B01FA03F01042F7D130782A2810
:1054000011D06FF02F033078A0F13002092A16D89E
:10541000039A44F0020402EB820203EB42021044BE
:10542000761C0390EFE758F8042B0392002A03DA66
:10543000504244F40054039044F00204761C307847
:105440002E2816D116F8010F44F004042A280DD096
:105450006FF02F023078A0F13003092B09D807EB49
:10546000870302EB4303C718761CF3E758F8047B65
:10547000761C30786C280FD006DC4C2817D06828B2
:105480000DD06A2814D104E0742810D07A280FD1E6
:105490000DE044F400140AE044F4801401E044F404
:1054A00040147278824202D104F58014761C761C76
:1054B000307866280BD013DC582877D009DC002818
:1054C00075D04528F6D04628F4D047281AD193E164
:1054D00018E0632835D0642879D0652812D18BE193
:1054E000702873D008DC6728F1D069286FD06E2847
:1054F0000DD06F2806D1ACE073282CD0752874D05D
:10550000782853D05246179990476D1C54E1C4F344
:105510000250022809D003280DD0D8F80010042822
:105520000DD00D6008F1040846E1D8F80010EA1724
:10553000C1E90052F6E7D8F800100D80F2E70D70CF
:10554000F0E718F8041B8DF8001000208DF801001A
:10555000EB46012003E058F804BB4FF0FF30610731
:105560004FF0000102D40DE009F101018946B94272
:105570000FDA8145F8DB1BF809100029F4D108E0A7
:1055800009F1010189468142FADB1BF80910002963
:10559000F6D103985346A0EB090721463846179ADF
:1055A00000F080FA284400EB090507E044E008E138
:1055B0000DE01BF8010B524617999047B9F101090C
:1055C000F7D2534621463846179AF2E039E00A21CD
:1055D000C4F302524FF0000B0091022A06D058F893
:1055E000040BC117032A09D00AE023E008F10700E1
:1055F00020F00702F2E80201904605E000B2C11770
:10560000042A01D140B2C117002906DA0A46002156
:10561000404261EB02012D2202E0220504D52B223B
:105620008DF80420012203E0E20701D02022F7E7F1
:10563000914657E00A2100E010214FF0000B009145
:105640000BE010214FF0000B44F0040408270091F8
:1056500003E008204FF0000B0090C4F30252022A2E
:1056600005D058F8040B0021032A08D008E008F1FF
:10567000070020F00702F2E80201904603E080B242
:10568000042A00D1C0B24FF0000922072AD532788F
:10569000702A07D0DDF800C08CF0100C5CEA0B0C0F
:1056A00005D00EE040228DF80420012208E050EAE7
:1056B000010306D030238DF804308DF80520022236
:1056C0009146009B83F0080353EA0B030AD150EA8A
:1056D000010201D1620705D530228DF804204FF078
:1056E00001097F1E3278582A04D039A20C920CAAE4
:1056F00002920BE03BA2F9E75B46009AFBF744F904
:105700000C9B9B5C029A521E0292137050EA01029B
:10571000F2D1029804A9081A00F1200B600702D503
:1057200024F4803400E001275F4502DDA7EB0B0085
:1057300000E0002000EB0B01009003984944401A60
:105740000390E00306D453462146179A039800F0CD
:10575000A9F90544002706E001A85246C05D179943
:1057600090476D1C7F1C4F45F6DBE0030CD553467C
:105770002146179A039800F095F9054404E030207B
:105780005246179990476D1C0099481E00900029B9
:10579000F5DC08E00298029952460078491C029113
:1057A000179990476D1CBBF10001ABF1010BF1DCC7
:1057B0005BE100F065F90544761C307800287FF441
:1057C0000DAE19B02846BDE8F08F00000928010091
:1057D0003031323334353637383961626364656667
:1057E0000000000030313233343536373839414229
:1057F0004344454600000000600700D4062708F136
:10580000070020F00700F0E80223804603F0004C78
:105810005FEA0C0001D097A009E0200501D596A011
:1058200005E0E00701D095A001E0AFF24C00139035
:10583000307823F0004365280CD006DC452809D0D9
:1058400046281DD047287FD13BE0662818D067281E
:105850007AD136E00021112F01DB112000E0781C05
:10586000CDE9000104A90CA8FFF7EEFCDDE90D016C
:105870000C9A4FF0000B07F10109109200914EE0D5
:105880004FF000400097CDE9011004A90CA8FFF7E4
:10589000DBFCDDE90D020C9B0F994FF0000B9146EC
:1058A0001093009211B9791C00EB0109B7EB0900C4
:1058B00003D4C0F1FF3B07F10109A9EB07000190F8
:1058C00042E0012F00DA01270021112F01DD112014
:1058D00000E03846CDE9000104A90CA8FFF7B4FCAC
:1058E000DDE90D010C9A00914FF0000BB9461092C2
:1058F00021070FD4009A4A4503DA914601E0A9F145
:105900000109B9F1010F05DD109AA9F10101515CFE
:105910003029F4D0B84202DA10F1040F03DA012181
:10592000CDE9011010E0002803DC8344A9EB00015D
:1059300002E0411C494500DD8946A0EB0B00401CFC
:1059400001904FF000400290200705D4019848458F
:1059500002DB4FF0FF30019000208DF84B000298E1
:105960000DF14B07B0F1004F25D002200C902B20F9
:105970000D90029800280CDA404202902D200D90E4
:1059800007E00A210298FAF7E9FF3031029007F8A0
:10599000011D0C99481E0C900029F2DC0298002889
:1059A000EFD1791E0D980870307800F0200040F09B
:1059B000450007F8020D11A8C01BC01D02901398E6
:1059C000007800B1012000EB0901019801EBE071C2
:1059D000029801440398401A401E0390E00306D445
:1059E00053462146179A039800F05CF80544139833
:1059F000007818B15246179990476D1CE00323D5E3
:105A000053462146179A039800F04CF805441BE0D2
:105A1000BBF1000F07DB0098584504DD109817997B
:105A200010F80B0001E0179930205246904701987A
:105A30000BF1010B401E05F10105019004D12E2050
:105A40005246179990476D1CB9F10001A9F101095F
:105A5000DEDC05E017F8010B5246179990476D1CE4
:105A60000299481E02900029F4DC53462146179AF9
:105A700003989EE62D0000002B000000200000008F
:105A80002DE9F041044600251E461746880404D43B
:105A900005E039462020B0476D1C641EF9D5284624
:105AA000BDE8F0812DE9F041044600251E469046F0
:105AB000C80301D5302700E02027880404D505E07D
:105AC00041463846B0476D1C641EF9D52846BDE8EE
:105AD000F0810A68531C0B60107070472DE9F04785
